:0400000067EF61F055
:1000080000C023F001C022F002C021F003C020F09C
:1000180004C01FF005C01EF006C01DF007C01CF08C
:1000280008C01BF009C01AF00AC019F00BC018F07C
:100038000CC017F00DC016F00EC015F0E1CF24F07B
:10004800E2CF25F09EA06BD39E90630ECF6EC00EBC
:10005800CE6E0001C64BC72BA94BAA2BAB4BAC2BC2
:100068000F0EC75D02E1A00EC65D05E3C66BC76B48
:10007800040001010B8B000E0001AA5D02E1FA0EDB
:10008800A95D03E3A96BAA6B0400030EAC5D02E152
:10009800E80EAB5D03E3AB6BAC6B040087B804D030
:1000A800010100BD01D0008D87A828D0010100AD55
:1000B80025D0E04BE12B009D0851E15D02E107519D
:1000C800E05D1CE3B8C100F0B9C101F0BAC102F0AB
:1000D800BBC103F0000E046E000E056E000E066E26
:1000E8007F0E076EA9EC13F000C0B8F101C0B9F19A
:1000F80002C0BAF103C0BBF1E06BE16B85B204D07A
:10010800010100BF01D0008F85A22CD0010100AFF2
:1001180029D0B64BB72B009F0001CC510101B75D28
:1001280004E10001CB510101B65D1CE3B2C100F04E
:10013800B3C101F0B4C102F0B5C103F0000E046E02
:10014800000E056E000E066E7F0E076EA9EC13F00A
:1001580000C0B2F101C0B3F102C0B4F103C0B5F1FF
:10016800B66BB76B80B604D0010100BB01D0008B21
:1001780080A62CD0010100AB29D0B04BB12B009B3D
:100188000001D2510101B15D04E10001D151010129
:10019800B05D1CE3CAC100F0CBC101F0CCC102F0D4
:1001A800CDC103F0000E046E000E056E000E066E43
:1001B8007F0E076EA9EC13F000C0CAF101C0CBF1A5
:1001C80002C0CCF103C0CDF1B06BB16B80B404D0E8
:1001D800010100B701D0008780A42CD0010100A73D
:1001E80029D0C84BC92B00970001D6510101C95D20
:1001F80004E10001D5510101C85D1CE3C4C100F050
:10020800C5C101F0C6C102F0C7C103F0000E046EFB
:10021800000E056E000E066E7F0E076EA9EC13F039
:1002280000C0C4F101C0C5F102C0C6F103C0C7F1E6
:10023800C86BC96B80B204D0010100B901D0008934
:1002480080A22CD0010100A929D0F24BF32B0099F0
:100258000001D4510101F35D04E10001D351010112
:10026800F25D1CE3BCC100F0BDC101F0BEC102F0EB
:10027800BFC103F0000E046E000E056E000E066E80
:100288007F0E076EA9EC13F000C0BCF101C0BDF1F0
:1002980002C0BEF103C0BFF1F26BF36B80B004D0B3
:1002A80001010BB701D00B8780A02CD001010BA74F
:1002B80029D0DE4BDF2B0B970001DD510101DF5DFB
:1002C80004E10001DC510101DE5D1CE3C0C100F066
:1002D800C1C101F0C2C102F0C3C103F0000E046E37
:1002E800000E056E000E066E7F0E076EA9EC13F069
:1002F80000C0C0F101C0C1F102C0C2F103C0C3F126
:10030800DE6BDF6B80BA04D001010BB901D00B8919
:1003180080AA2CD001010BA929D0CE4BCF2B0B9949
:100328000001EB510101CF5D04E10001EA51010137
:10033800CE5D1CE3EAC100F0EBC101F0ECC102F0B4
:10034800EDC103F0000E046E000E056E000E066E81
:100358007F0E076EA9EC13F000C0EAF101C0EBF1C3
:1003680002C0ECF103C0EDF1CE6BCF6B80B804D0C6
:1003780001010BB501D00B8580A82CD001010BA57C
:1003880029D0D04BD12B0B950001E9510101D15D4A
:1003980004E10001E8510101D05D1CE3F5C100F062
:1003A800F6C101F0F7C102F0F8C103F0000E046EC7
:1003B800000E056E000E066E7F0E076EA9EC13F098
:1003C80000C0F5F101C0F6F102C0F7F103C0F8F181
:1003D800D06BD16B82B204D001010BB101D00B817B
:1003E80082A22CD001010BA129D02A4B2B2B0B91D7
:1003F8000001ED5101012B5D04E10001EC51010107
:100408002A5D1CE3E2C100F0E3C101F0E4C102F09F
:10041800E5C103F0000E046E000E056E000E066EB8
:100428007F0E076EA9EC13F000C0E2F101C0E3F102
:1004380002C0E4F103C0E5F12A6B2B6B82B004D053
:1004480001010BB301D00B8382A02CD001010BA3B7
:1004580029D0284B292B0B930001F1510101295D6B
:1004680004E10001F0510101285D1CE3E6C100F040
:10047800E7C101F0E8C102F0E9C103F0000E046E23
:10048800000E056E000E066E7F0E076EA9EC13F0C7
:1004980000C0E6F101C0E7F102C0E8F103C0E9F1EC
:1004A800286B296B88B804D0010100B501D00085FC
:1004B80088A82CD0010100A529D0344B352B0095F4
:1004C8000001EF510101355D04E10001EE51010128
:1004D800345D1CE3D6C100F0D7C101F0D8C102F0E9
:1004E800D9C103F0000E046E000E056E000E066EF4
:1004F8007F0E076EA9EC13F000C0D6F101C0D7F14A
:1005080002C0D8F103C0D9F1346B356B88BA04D076
:100518000001D7BD01D0D78D88AA2DD00001D7AD55
:100528002AD001018A4B8B2B0001D79DE151010193
:100538008B5D04E10001E05101018A5D1CE3DAC131
:1005480000F0DBC101F0DCC102F0DDC103F0000EF8
:10055800046E000E056E000E066E7F0E076EA9EC87
:1005680013F000C0DAF101C0DBF102C0DCF103C016
:10057800DDF18A6B8B6B88BC04D00001D7BF01D03A
:10058800D78F88AC2DD00001D7AF2AD00101884B76
:10059800892B0001D79FDF510101895D04E100012A
:1005A800DE510101885D1CE3D2C100F0D3C101F026
:1005B800D4C102F0D5C103F0000E046E000E056E22
:1005C800000E066E7F0E076EA9EC13F000C0D2F184
:1005D80001C0D3F102C0D4F103C0D5F1886B896B97
:1005E80088BE04D00001D7BB01D0D78B88AE2DD0F0
:1005F8000001D7AB2AD001018E4B8F2B0001D79B6E
:10060800E35101018F5D04E10001E25101018E5DBA
:100618001CE3F6C000F0F7C001F0F8C002F0F9C022
:1006280003F0000E046E000E056E000E066E7F0EBF
:10063800076EA9EC13F000C0F6F001C0F7F002C095
:10064800F8F003C0F9F08E6B8F6B82B404D0000110
:10065800D7B701D0D78782A42DD00001D7A72AD039
:1006680001018C4B8D2B0001D797E75101018D5D5E
:1006780004E10001E65101018C5D1CE3F2C000F0C9
:10068800F3C001F0F4C002F0F5C003F0000E046EF0
:10069800000E056E000E066E7F0E076EA9EC13F0B5
:1006A80000C0F2F001C0F3F002C0F4F003C0F5F0AE
:1006B8008C6B8D6B82BA04D00001D7B901D0D78971
:1006C80082AA2DD00001D7A92AD00101864B872BF9
:1006D8000001D799E5510101875D04E10001E4516A
:1006E8000101865D1CE3FAC000F0FBC001F0FCC00C
:1006F80002F0FDC003F0000E046E000E056E000E41
:10070800066E7F0E076EA9EC13F000C0FAF001C068
:10071800FBF002C0FCF003C0FDF0866B876BF2A211
:1007280018D00201396B3A6B3B6B0101F051EE2591
:1007380002013C6F0101F151EF2102013D6FC0EC54
:1007480010F00001D7A504D001010BBF01D00B8D1B
:10075800F29223C000F022C001F021C002F020C0B4
:1007680003F01FC004F01EC005F01DC006F01CC039
:1007780007F01BC008F01AC009F019C00AF018C029
:100788000BF017C00CF016C00DF015C00EF024C009
:08079800E1FF25C0E2FF1100A2
:0A07A000050E0D6E0D2EFED712009F
:1007AA009186120E006E000E016E830E0024E16E19
:1007BA000F0E0120E26EFF0EE66E9192030E831475
:0E07CA00016E0150030A01E0F9D7918212007E
:1007D800E8DF120E006E000E016E830E0024E16E3B
:1007E8000F0E0120E26EE66A95C283FF9190D4DF76
:0807F800D3DFD2DF9180120073
:100800000B6A0A6A096A00500402F4CF09F0F3CFB8
:1008100008F001500502F4CF0BF0F3CF0AF00050BE
:100820000502F3500926F4500A22E86A0B2201500F
:100830000402F3500926F4500A22E86A0B2208C089
:1008400000F009C001F00AC002F00BC003F0120072
:10085000086A096A100E0C6E013408360936045015
:10086000085E0550D8A0053C095ED8B007D00450FA
:1008700008260550D8B0053C0926D8900036013628
:060880000C2EEAD7120065
:100886009196120E006E000E016E830E0024E16E2C
:100896000F0E0120E26EE66A94C283FF91907DDF1F
:0808A6007CDF7BDF9180120072
:1008AE007DDFC50E0201956F90DF120E006E000EF9
:1008BE00016E830E0024E16E0F0E0120E26EFF0E1C
:1008CE00E66E67DF91969192918063DF62DF61DF62
:0C08DE0083CF94F263DF94C200F012009C
:1008EA000101255102018B5D04E10101245102013C
:1008FA008A5D01E3A5D00101275102018D5D04E162
:10090A000101265102018C5D01E39AD0800E8B19F8
:10091A00006E800E005C02E1000E8A5D01E290D05A
:10092A00800E8D19006E800E005C02E1000E8C5D57
:10093A0001E286D02CC104F02DC105F08AC200F074
:10094A008BC201F080DF00C092F201C093F28CC228
:10095A0000F08DC201F032C104F033C105F04BDF63
:10096A0092510026000E012201011E510024036E3D
:10097A001F510120046E04C000F0016A00C08FF20A
:10098A0003C094F27BDF8FC294F278DF240E020157
:10099A00956F1DDF02018E51020A38E101DF82DF05
:1009AA0000C092F292C290F22CC104F02DC105F05F
:1009BA008AC200F08BC201F046DF08C000F009C00D
:1009CA0001F0005001012C5D006E000600C001F02C
:1009DA00010E006E015004E000360090FF0FFBD7B5
:1009EA0000C091F202019251001607E0911D006EBB
:1009FA0000C091F20050901702D09151901390C20A
:100A0A0094F23CDFC40E956FE2DE1AD0F00E0201BA
:100A1A008E11956F2CC104F02DC105F08AC200F029
:100A2A008BC201F010DF08C000F009C001F00050CD
:100A3A0001012C5D006E0006005002019513C7DE0D
:020A4A00120098
:100A4C008AC29BF18BC29CF18CC29DF1020E0201F9
:100A5C008A25F66E000E8B21F76E000E8C21F86E37
:100A6C000900F5CF04F0030E8A25F66E000E8B21DB
:100A7C00F76E000E8C21F86E0900F5CF03F003C061
:100A8C0001F0006A045000240101906F000E012057
:100A9C00916F040E02018A25F66E000E8B21F76E03
:100AAC00000E8C21F86E0900F5CF04F0050E8A2596
:100ABC00F66E000E8B21F76E000E8C21F86E09007D
:100ACC00F5CF03F003C001F0006A045000240101CB
:100ADC00996F000E01209A6F060E02018A25F66EA0
:100AEC00000E8B21F76E000E8C21F86E0900F5CFED
:100AFC009EF1000E01019F6F8DC2AEF1000EAF6F23
:100B0C008EC296F1010E0001AD6F0101306B316B9D
:020B1C001200C5
:100B1E00F250026EF29E0500FF6A0150FE6E00500A
:080B2E00FD6E02BEF28E120002
:100B36007CC2ACF17DC2ADF17EC297F17FC298F165
:020B460012009B
:100B48000201846B856B866B0001AD51000A0EE1D2
:100B58002E0E02018A6FD80E8B6F000E8C6F080E56
:100B68008D6F8E6B6FDF010E0001AD6F000E006E92
:100B780001019151005C03E1905102017C5D01E2A9
:100B880007D1000E01019A5D04E102017C510101C7
:100B9800995D01E2FDD0905102017C5D016E91C129
:100BA80002F0000E025601C003F002C004F0033642
:100BB80003900436033603900436080E01019B2582
:100BC800006E000E9C21016E000E9D21026E000E2B
:100BD800056E00500326015004220250052203C06E
:100BE800F6FF04C0F7FF05C0F8FF0900F5CF84F24F
:100BF800010E0324F66E000E0420F76E000E052089
:100C0800F86E0900F5CF00F000C006F0000E076E80
:100C1800086E096E020E0324F66E000E0420F76EAD
:100C2800000E0520F86E0900F5CF03F003C001F0AF
:100C3800006A000E026E036E06500026075001225D
:100C480008500222095003229B5100240201816F9F
:100C580001019C5101200201826F01019D51022076
:100C68000201836F01019651000A4AE197C17FF2A0
:100C780002017E6B000E006E01019F51005C03E1D2
:100C88009E5102017E5D33E20201ACC185F2806BA8
:100C98007D6B84517D5D28E28051000A10E181C29C
:100CA800F6FF82C2F7FF83C2F8FF0900F5CF86F28C
:100CB800010E8127000E82238323010E806F80514D
:100CC8008615006E0BE085C28AF2000E8B6F7FC21C
:100CD8008CF2000E8D6FAEC18EF203DE0201852B01
:100CE800803780917D2BD5D77F2B7E2BC3D70201F0
:100CF8008551010F0101AC6FAD6B000EAD2348D0DB
:100D0800ACC17FF202017E6B000E006E01019F51A3
:100D1800005C03E19E5102017E5D33E2020197C14E
:100D280085F2806B7D6B84517D5D28E28051000ADD
:100D380010E181C2F6FF82C2F7FF83C2F8FF090003
:100D4800F5CF86F2010E8127000E82238323010E40
:100D5800806F80518615006E0BE07FC28AF2000E0C
:100D68008B6F85C28CF2000E8D6FAEC18EF2B9DD2D
:100D780002018507803780917D2BD5D77F2B7E2B6D
:100D8800C3D7020185050101976F986B000E985B28
:020D9800120047
:100D9A00A40E0201886F010E896F000E006E815148
:100DAA00005C02E18051000843E294C1E1FF95C171
:100DBA00E2FF7CC2E6FF7DC2E6FF7EC2E6FF7FC29B
:100DCA00E6FF80C2E6FF81C2E6FF840EE66E020EEF
:100DDA00E66E92C100F093C101F09CDE00C086F27B
:100DEA0001C087F20201826B836B8551835D02E148
:100DFA008451825D11E286C2E9FF87C2EAFF88C296
:100E0A00E1FF89C2E2FFEECFE6FF884B892B864BD2
:100E1A00872B824B832BE9D78451805F8551815B75
:100E2A0084517C2785517D23000E7E237F23B5D7ED
:020E3A001200A4
:100E3C000201776B786B796B7A6B0101915102012E
:100E4C00635D04E1010190510201625D01E2EDD1AB
:100E5C00635101019A5D04E1020162510101995D46
:100E6C0001E2E3D190510201625D036E01019151E7
:100E7C0002016359046E03C000F004C001F0003697
:100E8C0000900136003600900136080E0101A025B5
:100E9C0002017C6F000E0101A12102017D6F000E89
:100EAC000101A22102017E6F000E0101A3210201AA
:100EBC007F6F00507C2701507D23000E7E237F2303
:100ECC00040E806F000E816F62DFA40E756F010E31
:100EDC00766F75C2E9FF76C2EAFFEECF7BF27BC27A
:100EEC0077F2010E7525E96E000E7621EA6EEECFD3
:100EFC0004F0000E056E066E076E020E7525E96E87
:100F0C00000E7621EA6EEECF03F003C001F0006A0A
:100F1C00000E026E036E045000260550012206508E
:100F2C0002220750032200500101A0250201696F23
:100F3C0001500101A12102016A6F02500101A2219D
:100F4C0002016B6F03500101A32102016C6F7BC284
:100F5C0000F00032009E0032009E0032009E000E17
:100F6C00016E9EC104F09FC105F044DC00C06FF21D
:100F7C0001C070F2070E7B15006E08E001019E5156
:100F8C0002016F2701019F51020170236FC273F29E
:100F9C0070C274F294C1E1FF95C1E2FF69C2E6FF31
:100FAC006AC2E6FF6BC2E6FF6CC2E6FF6FC2E6FFE9
:100FBC0070C2E6FF6D0EE66E020EE66E92C100F098
:100FCC0093C101F0A6DD00C075F201C076F20201FA
:100FDC006D5169276E516A23000E6B236C236D5182
:100FEC006F5F6E51705B716B726B01019651000AF1
:100FFC00D8A48DD097C166F298C167F20201656BD7
:10100C00000E006E01019F51005C03E19E51020134
:10101C00655DD8B071D00201ACC178F2ADC179F286
:10102C00686B646B7751645D63E26851000A49E157
:10103C00714B722B74516E5D02E173516D5D37E231
:10104C0072516E5D02E171516D5D31E2010E716F95
:10105C00000E726F94C1E1FF95C1E2FF69C2E6FF19
:10106C006AC2E6FF6BC2E6FF6CC2E6FF6FC2E6FF28
:10107C0070C2E6FF6D0EE66E020EE66E92C100F0D7
:10108C0093C101F046DD00C075F201C076F26FC26B
:10109C0073F270C274F202016D5169276E516A23AA
:1010AC00000E6B236C236D516F5F6E51705B75C2BC
:1010BC00E9FF76C2EAFFEECF7AF2754B762B010E82
:1010CC00686F68517A15006E0CE078C28AF279C2AA
:1010DC008BF266C28CF267C28DF2AEC18EF275ECE9
:1010EC0004F00201784B792B68376891642B9AD7FE
:1010FC00664B672B652B84D70201010E7825010105
:10110C00AC6F000E020179210101AD6F8ED0ACC124
:10111C0066F2ADC167F20201656B000E006E010153
:10112C009F51005C03E19E510201655DD8B073D004
:10113C00020197C178F298C179F2686B646B7751B0
:10114C00645D65E26851000A49E1714B722B745180
:10115C006E5D02E173516D5D37E272516E5D02E1BD
:10116C0071516D5D31E2010E716F000E726F94C1A1
:10117C00E1FF95C1E2FF69C2E6FF6AC2E6FF6BC2FE
:10118C00E6FF6CC2E6FF6FC2E6FF70C2E6FF6D0EB3
:10119C00E66E020EE66E92C100F093C101F0B9DC6E
:1011AC0000C075F201C076F26FC273F270C274F2B5
:1011BC0002016D5169276E516A23000E6B236C235B
:1011CC006D516F5F6E51705B75C2E9FF76C2EAFFBD
:1011DC00EECF7AF2754B762B010E686F68517A154B
:1011EC00006E0CE066C28AF267C28BF278C28CF297
:1011FC0079C28DF2AEC18EF275EC04F0010E0201D3
:10120C00785F000E795B68376891642B98D7664BD2
:10121C00672B652B82D70201010E785D0101976F58
:0C122C00000E020179590101986F1200B8
:101238000201666B050E665D0AE266516425E16E81
:10124800000E6521E26E200EE66E662BF3D766511E
:101258006425E16E000E6521E26EE66A6607665156
:101268006425676F000E6521686F0A0E046E000E14
:10127800056E62C200F063C201F028EC04F008C0F9
:1012880000F009C001F0300E002667C2E1FF68C215
:10129800E2FF00C0E6FF0A0E046E000E056E62C291
:1012A80000F063C201F028EC04F000C062F201C053
:1012B80063F2000E011802E1000E001801E102D0ED
:0612C8006607CDD71200FD
:1012CE00010125510201645D04E101012451020175
:1012DE00635D01E31FD0010127510201665D04E148
:1012EE00010126510201655D01E314D063C27CF257
:1012FE0064C27DF265C27EF266C27FF215DC010128
:10130E003051311104E062C27CF217DC03D062C2AC
:06131E007CF213DC12005A
:10132400C7B409D01F0EC514016E0150000A03E1B1
:0A133400010E006E01D0006A1200E5
:10133E0028C04FF229C050F22AC051F22BC052F2EF
:10134E0002014D6B4E6B4E51120802E14D518E084B
:10135E0008E3E1DF005201E004D002014D4B4E2BB9
:10136E00F2D70201120E4E5D02E18F0E4D5D03E3C8
:10137E007B0E006E25D0C580C5A021D02850291027
:10138E002A102B101BE04F515011511152110FE129
:10139E00DAC0E1FFDBC0E2FF050EE66ED8C000F05A
:1013AE00D9C001F08FEC05F0010E006E09D0010ED0
:1013BE0002014F5F000E505B515B525BDDD7006A3E
:0213CE0012000B
:1013D0009E964DC2C9FF28C04EF229C04FF22AC0C6
:1013E00050F22BC051F2C7A422D0285029102A1045
:1013F0002B101CE002014E514F11501151110FE101
:10140000DAC0E1FFDBC0E2FF040EE66ED8C000F0F8
:10141000D9C001F08FEC05F0010E006E3BD0010E3B
:1014200002014E5F000E4F5B505B515BDCD728C062
:101430004EF229C04FF22AC050F22BC051F29EB694
:1014400022D0285029102A102B101CE002014E51E6
:101450004F11501151110FE1DAC0E1FFDBC0E2FF83
:10146000040EE66ED8C000F0D9C001F08FEC05F094
:10147000010E006E0FD0010E02014E5F000E4F5B99
:10148000505B515BDCD7C5BC02D0006A03D0C58479
:06149000020E006E1200C6
:101496000201536B546B4DC255F24EC256F2800E8A
:1014A6004E19006E800E005C02E1000E4D5D0BE2EF
:1014B600010E536F000E546F4D510008556F4EC20A
:1014C60056F2000E565755C262F256C263F24FC22A
:1014D60064F250C265F2ADDE060E516F000E526F19
:1014E600000E006E5251005C02E15151000819E2F3
:1014F60051514F25E16E52515021E26E010E515D60
:10150600006E000E5259016E00504F25E96E0150D3
:101516005021EA6EEECFE6FF010E515F000E525BE0
:10152600DFD74FC2E1FF50C2E2FF200EE66E5351F5
:1015360054111AE0516B526B51514F25E96E5251BD
:101546005021EA6EEE50200A03E1514B522BF4D79C
:10155600010E515F000E525B51514F25E16E525103
:0A1566005021E26E2D0EE66E120019
:1015700028C04DF229C04EF22AC04FF22BC050F2C3
:10158000C582C5A220D0285029102A102B101AE09D
:1015900002014D514E114F1150110DE1DAC0E1FF22
:1015A000DBC0E2FF060EE66ED8C000F0D9C001F045
:1015B0008FEC05F008D0010E02014D5F000E4E5B6E
:0815C0004F5B505BDED7120007
:1015C80002014D6B4D6B100E4D5D0BE2760EE16E18
:1015D800010EE26E4D51E126D8B0E22AE66A4D2BA3
:0415E800F2D7120024
:1015EC0028C04FF229C050F22AC051F22BC052F23F
:1015FC009E96C5869EB620D0285029102A102B10F6
:10160C001AE002014F515011511152110DE1DAC083
:10161C00E1FFDBC0E2FF030EE66ED8C000F0D9C0DC
:10162C0001F08FEC05F008D0010E02014F5F000EA7
:10163C00505B515B525BDED70201C9CF4EF24D516C
:10164C00000A02E1C58A01D0C59A9E96C58828C0B9
:10165C004FF229C050F22AC051F22BC052F29EB662
:10166C0020D0285029102A102B101AE002014F51BB
:10167C005011511152110DE1DAC0E1FFDBC0E2FF54
:10168C00030EE66ED8C000F0D9C001F08FEC05F067
:10169C0008D0010E02014F5F000E505B515B525B94
:0816AC00DED74EC200F012006F
:0416B400C5841200D7
:1016B80002014F51535D016E50515459026E01C0E1
:1016C8005AF202C05BF24D51515D5C6F4E51525956
:1016D8005D6F800E0218006E800E005C02E1000E45
:1016E800015C0BE25A5100085A6F5B51000E5B57C0
:1016F800FF0E606FFF0E616F04D0010E606F000E69
:10170800616F800E5D19006E800E005C02E1000EB4
:101718005C5D0BE25C5100085C6F5D51000E5D572B
:10172800FF0E5E6FFF0E5F6F04D0010E5E6F000E3E
:101738005F6F5A375A915B375C375C915D374DC2A2
:101748008AF24EC28BF24FC28CF250C28DF255C251
:101758008EF275EC04F0800E02015B19006E800EAB
:101768005D19005C02E15C515A5D43E25CC200F025
:101778005DC201F001320032019E01BC018E0050B1
:101788005A5D566F01505B59576F02014E515219FD
:1017980002E151514D192CE0800E5719006E800E50
:1017A800005C02E1000E565D08E360514F2761516D
:1017B80050235C51565F5D51575B5E514D25006E5D
:1017C8005F514E21016E00C04DF201C04EF25A51D8
:1017D80056275B51572300C08AF201C08BF24FC2D3
:1017E8008CF250C28DF255C28EF275EC04F0CDD752
:1017F80043D05AC200F05BC201F001320032019EB0
:1018080001BC018E005002015C5D586F01505D59AA
:10181800596F02015051541902E153514F192CE0EC
:10182800800E5919006E800E005C02E1000E585DB2
:1018380008E35E514D275F514E235A51585F5B5163
:10184800595B60514F25006E61515021016E00C0F7
:101858004FF201C050F25C5158275D5159234DC2D7
:101868008AF24EC28BF200C08CF201C08DF255C2D2
:0A1878008EF275EC04F0CDD71200DB
:101882000134083609360450085E0550D8A0053CDC
:10189200095E003601360F0E0C6E01340836093629
:1018A200045000A006D0085E0550D8A0053C095E91
:1018B20005D008260550D8B0053C09260036013669
:1018C2000C2EEBD700B006D0045008260550D8B035
:0818D200053C0926000012008C
:1018DA000B840BAE78EF0CF0010E036E026A016AFC
:0A18EA00006A0A360232FF0E1200F7
:0E18F400026A016A006A086A036A000E1200A6
:10190200010125510201505D04E10101245102014E
:101912004F5D01E345D0010127510201525D04E10F
:10192200010126510201515D01E33AD0536B546B20
:101932004FC27CF250C27DF251C27EF252C27FF29D
:101942009BEC05F053514D25E96E54514E21EA6E40
:10195200EE5226E001013051311113E002015351E0
:101962004D25E96E54514E21EA6EEECF62F2000E21
:10197200636F000E636F1EEC07F00201534B542B92
:101982000ED0020153514D25E96E54514E21EA6E9B
:10199200EECF7CF2A4EC05F00201534B542BD2D7CC
:0219A200120031
:1019A40002014F6B506B4DC203F04EC204F04DC2A6
:1019B40005F04EC206F003C0E9FF04C0EAFFEE5092
:1019C400200A04E14F51501101E110D0010E4F6F74
:1019D400000E506F03C0E9FF04C0EAFF05C0E1FF39
:1019E40006C0E2FFEECFE6FF054A062A03C001F077
:1019F40004C002F0034A042A01C0E9FF02C0EAFF5E
:101A0400EE50000AD8E14DC200F04EC201F01200BF
:101A140050C252F24DC2F6FF4EC2F7FF4FC2F8FF5A
:101A24000900F5CF00F0005223E04DC2F6FF4EC28C
:101A3400F7FF4FC2F8FF0900F5CF62F252C263F21A
:101A4400000E0201646F51C265F2000E666F3DDC48
:101A5400010E02014D27000E4E234F23080E52257E
:101A6400016E01C052F2F00E015C01E301D0D2D745
:021A740012005E
:081A76000AAE029E000E1200F0
:101A7E000C6A0E6A0250D8A458EF0DF001C002F0A5
:101A8E0000C001F0006A0E860250D8A458EF0DF087
:101A9E0001C002F0016A0E960E880250D8B46AEFA9
:101AAE000DF00E50035ED8A4D8A06FEF0DF0D890B5
:101ABE0002BE74EF0DF0003601360236032E5FEFD4
:101ACE000DF06FEF0DF0010E0C6E0DDF77EF0DF0D8
:101ADE00020E0C6EFBDE77EF0DF0040E0C6EC4DF03
:021AEE001200E4
:101AF00044C24DF2000E02014E6F760E4F6F010E82
:101B0000506FC9DC760E4D6F010E4E6F4BDF0A0E23
:101B1000445D1CE2FE0E4D6FE80E4E6F000E4F6FDF
:101B200045C250F246C251F275DF760E02014D6F8A
:101B3000010E4E6F080E45254F6F506B000E50235F
:101B400046C251F2000E526FDCDE10D00A0E445D28
:101B50000DE3760E4D6F010E4E6F45C24FF2000E33
:101B6000506F46C251F2000E526FCBDE2DDD1200D7
:101B700045C200F0016A00C047F244C294F243EC4F
:101B800004F047C294F243EC04F046C295F2ECEC48
:041B900003F012004C
:101B94000B820BAED4EF0DF0036802680168006895
:081BA4000A360232FF0E1200A6
:101BAC009FEC09F0AE0E02014D6F0CDC45C200F04B
:101BBC00016A00C04DF206DC44C24DF203DCD2DCFB
:101BCC00AF0E02014D6FE8EC09F002014D6B08DD20
:101BDC0000C046F292EC09F0005202E10000FAD784
:101BEC0063DDD00E0C6EC90E0D6E0D2EFED70C2EB5
:101BFC00FCD70000000046C200F0000E016E12007F
:101C0C00086A080E0C6E003408360450085ED8B012
:0E1C1C0002D00826D89000360C2EF5D7120004
:101C2A007FA202D00000FCD77F9C45C263FF44C25A
:101C3A0062FF46C261FF7F9E7F84F2CF00F0F29E70
:101C4A00550E7E6EAA0E7E6E7F8200BE02D0F29E76
:081C5A0001D0F28E7F9412000C
:101C62000450000A08E10550000A05E1FF0E006E6B
:101C72007F0E016E57D00D6A096A086A0150001082
:101C8200D8B4000C015005180A6E0ABE0D1E0B6A6C
:101C920005AE05D0041E051E042AD8B4052A01AEDD
:101CA20005D0001E011E002AD8B4012A01500510D9
:101CB2000A6E0ABE10D0E4DD0BB020D00DAE000CCF
:101CC200001E011E002AD8B4012A081E091E082A75
:101CD200D8B4092A000C05AE0DD001BE07D00150C0
:101CE200096E0050086E016A006AE8D7016A006A4C
:101CF200002A000C011E001E0B2ADDD7082AD8B4C8
:101D0200092A0450085CD8A4D9D70550095CD8A484
:101D1200D5D7096A086A002AD8B4012A01AECED7FB
:061D22000000FF0C12009E
:101D28007F9C45C263FF44C262FF7F9E7F8061CF74
:081D380001F001C000F01200EF
:101D4000800E02014919006E800E4519005C02E107
:101D50004451485D17E344C24DF245C24EF246C2BB
:101D60004FF247C250F244C251F245C252F24AC247
:101D700053F24BC254F24CC255F29EDC0201444B6A
:061D8000452BDED7120026
:101D860039C200F00032009E0032009E0032009EF2
:101D96000032009E0A0E0002F3CF01F00F0E020180
:0A1DA6003915006E015000261200EE
:101DB0000CB01AEF0FF00CA2C0EF0FF00E6A000E7D
:101DC000026431EF0FF0F00E0214D8A4FCEF0EF015
:101DD000023A01380F0B02260138F00B016E003871
:101DE0000F0B01260038F00B006E08380F0B002691
:101DF0000838F00B086E0E84D89002BE15EF0FF075
:101E000008360036013602360E2A02BE15EF0FF0F4
:101E100008360036013602360E2A02BE15EF0FF0E4
:101E200008360036013602360E2A0E500364B6EF2D
:101E30000FF0035E0BBC08AEBBEF0FF0D880800E36
:101E400008640030000E002201220222D8A0BBEF5D
:101E50000FF0023201320032034AC0EF0FF0BBEF45
:101E60000FF001C002F000C001F008C000F0086AE5
:101E7000000E0E86026468EF0FF0F00E0214D8A474
:101E800050EF0FF0023A01380F0B02260138F00B29
:101E9000016E00380F0B01260038F00B006E0E8427
:101EA000D89002BE15EF0FF00036013602360E2A2A
:101EB00002BE15EF0FF00036013602360E2A02BEC2
:101EC00015EF0FF00036013602360E2A15EF0FF02F
:101ED00001C002F000C001F0006A000E0E960E88EC
:101EE000026495EF0FF0F00E0214D8A480EF0FF00B
:101EF000023A01380F0B02260138F00B016E0E84F6
:101F0000D89002BE15EF0FF0013602360E2A02BE3F
:101F100015EF0FF0013602360E2A02BE15EF0FF054
:101F2000013602360E2A15EF0FF001C002F0016AE9
:101F3000000E0E860264C5EF0FF0F00E0214D8A456
:101F4000A4EF0FF0023A0E84D89002BE15EF0FF006
:101F500002360E2A02BE15EF0FF002360E2A02BE1E
:101F600015EF0FF002360E2A15EF0FF0010E0C6E72
:101F7000B4DCC8EF0FF0020E0C6E7DDDC8EF0FF081
:101F8000040E0C6E07DEC8EF0FF0080E0C6EB2DC0C
:021F900012003D
:101F920039C244F23AC245F23CC200F0016AFF0E75
:101FA20000140201466F40DE010E02013925446F22
:101FB200000E3A21456FFF0E3B15466F35DE1200CB
:101FC20002013B6B3C6B3D6B3E6B39C244F23AC241
:101FD20045F2A9DE00C03DF2000E3E6F010E39252A
:101FE200446F000E3A21456F9EDE00C03BF2000EA8
:101FF2003C6F680E0C6EE40E0D6E0D2EFED70C2E8D
:10200200FCD700003DC201F0006A000E0014026E0F
:102012000150FF0B036EFF0E3B15006E3CC201F038
:0E202200000E011602500012035001121200AF
:102030000050086E0150006E016A026A036A0B6A62
:102040000C6A960E036E0A6A00C001F008C000F028
:08205000086A026A14DD1200A7
:1020580002013D6B39C244F23AC245F2A3DD00C029
:102068003DF2010E02013925446F000E3A21456FF9
:1020780099DD3DC23BF2000E02013C6F3BC203F00A
:10208800026A000E0216FF0E031602C03BF203C0DE
:102098003CF2000E016E025000260350012200C0DF
:1020A8003BF201C03CF206D00D2EFED70C2EFCD719
:0620B80000000000120010
:1020BE0039C24DF23AC24EF23BC24FF23CC250F21E
:1020CE003DC251F23EC252F23BC253F23CC254F2F6
:1020DE0041C255F25CEC0BF03DC24DF23EC24EF2E7
:1020EE003BC24FF23CC250F23DC251F23EC252F2DE
:1020FE003FC253F240C254F241C255F25CEC0BF0B7
:10210E003DC24DF23EC24EF23FC24FF240C250F2BD
:10211E0039C251F23AC252F23FC253F240C254F2A5
:10212E0041C255F25CEC0BF039C24DF23AC24EF29E
:10213E003FC24FF240C250F239C251F23AC252F28D
:10214E003BC253F23CC254F241C255F25CEC0BF06E
:02215E0012006D
:10216000D5EC03F039C294F243EC04F03AC294F295
:1021700043EC04F0210E0201956FECEC03F0120029
:1021800002013E6B3F6BD5EC03F002013A510101B5
:102190001E250201446F3B5101011F210201456FC1
:1021A000240E466FE5DCB00E0201956FECEC03F0F7
:1021B0009196120E006E000E016E830E0024E16EE9
:1021C0000F0E0120E26EE66A02013D513F5D02E121
:1021D0003C513E5D0FE239C283FF9190D0EC03F099
:1021E000D0EC03F0D0EC03F0D0EC03F091803E4B48
:0E21F0003F2BEAD7B20E956FECEC03F0120015
:1021FE009FEC09F0AE0E02014D6FE8EC09F03AC209
:10220E0000F0016A00C04DF2E8EC09F039C24DF25F
:10221E00E8EC09F03BC24DF2E8EC09F05AEC0BF099
:10222E00D00E0C6EC90E0D6E0D2EFED70C2EFCD7D9
:06223E0000000000120088
:10224400510E02013C6F000E3D6F680E3E6F000E92
:102254003F6FA00E406F000E416F5A0E426F000E8A
:10226400436F3C51405D006E3D514159016E39C28E
:1022740004F0000E056E00EC04F0640E046E000E13
:10228400056EEDDC005002013C253A6F01503D2102
:102294003B6F6C0E446F000E456F480E466F000E88
:1022A400476F840E486F000E496F500E4A6F000E40
:1022B4004B6F4C6B43DD39C244F26C0E456F480ED4
:1022C400466F14DC040E4D6FE90E4E6F000E4F6F17
:1022D4007B0E506F480E516F0AEC0DF0D00E0C6E51
:1022E400C90E0D6E0D2EFED70C2EFCD7000000007B
:1022F4003CC244F23DC245F23EC246F23FC247F2FE
:102304003AC248F23BC249F242C24AF243C24BF2D9
:0A231400080E02014C6F12DD1200EA
:10231E0002013A6B395109081BE20A0E046E39C2EA
:10232E0000F06DDC00C03AF200C03AF23A373A9152
:10233E003A373A913A373A913A373A910A0E046E51
:10234E0039C200F05CDC08C000F000503A1302D035
:0A235E0039C23AF23AC200F0120050
:102368009FEC09F0D00E02014D6FE8EC09F030C285
:102378004DF2E8EC09F031C239F2CDDF00C04DF280
:10238800E8EC09F05AEC0BF0D00E0C6EC90E0D6E8D
:0E2398000D2EFED70C2EFCD700000000120008
:1023A60033C23BF202013C6B30C239F231C23AF21F
:1023B600000E3C6F21DFFF0E020132153B6F010E4E
:1023C6003025396F000E31213A6F000E3C6F14DF55
:1023D600D00E0C6EC90E0D6E0D2EFED70C2EFCD730
:0623E600000000001200DF
:1023EC000201356BFF0E366F376B386B0101F483CE
:1023FC00F4C195F2ECEC03F00101F481F4C195F217
:10240C00ECEC03F033C200F00032009E0032009E70
:10241C000032009E030E0024026E02C0FFF034C294
:10242C0000F00032009E0032009E0032009E00C080
:10243C00FEF002C039F200C03AF28CDE02013751D4
:10244C00000AD8A471D13851000AD8A46DD1040067
:10245C0084B87ED030C2E9FF31C2EAFF3251EE5C63
:10246C0077E20D0E0B6E2D0E0C6ED70E0D6E0D2E23
:10247C00FED70C2EFCD70B2EFAD70000000030C272
:10248C00E9FF31C2EAFFEE50F0082DE330C2E9FF5C
:10249C0031C2EAFF30C2E1FF31C2E2FF0A0EEE2682
:1024AC000A0E335D446F456B000E455B34C246F239
:1024BC00000E476F33C248F2000E496F180E4827C2
:1024CC00000E4923090E34254A6F4B6B000E4B232B
:1024DC004C6B30DC35C244F233C245F234C246F2A6
:1024EC0078EC0DF028D030C2E1FF31C2E2FF32C2ED
:1024FC00E6FF0A0E335D446F456B000E455B34C23C
:10250C0046F2000E476F33C248F2000E496F180EA8
:10251C004827000E4923090E34254A6F4B6B000ED9
:10252C004B234C6B07DC35C244F233C245F234C248
:10253C0046F278EC0DF030C2E9FF31C2EAFF3251BD
:10254C00EE5C06E330C2E1FF31C2E2FF32C2E6FFCD
:10255C0084BA43D030C2E9FF31C2EAFFEE50000822
:10256C003CE284A83AD00D0E0B6E2D0E0C6ED70EDD
:10257C000D6E0D2EFED70C2EFCD70B2EFAD70000AD
:10258C00000030C2E9FF31C2EAFF30C2E1FF31C2C4
:10259C00E2FFE6060A0E335D446F456B000E455BA9
:1025AC0034C246F2000E476F33C248F2000E496F38
:1025BC00180E4827000E4923090E34254A6F4B6B21
:1025CC00000E4B234C6BA0EC0EF035C244F233C220
:1025DC0045F234C246F278EC0DF084BE41D030C2E4
:1025EC00E9FF31C2EAFFEE5000083AE284A838D085
:1025FC000D0E0B6E2D0E0C6ED70E0D6E0D2EFED716
:10260C000C2EFCD70B2EFAD70000000030C2E1FFD5
:10261C0031C2E2FFE66A0A0E335D446F456B000E71
:10262C00455B34C246F2000E476F33C248F2000ECF
:10263C00496F180E4827000E4923090E34254A6F9E
:10264C004B6B000E4B234C6BA0EC0EF035C244F2DE
:10265C0033C245F234C246F278EC0DF035C236F294
:10266C0084BC29D00101F493F4C195F2ECEC03F095
:10267C000001C22B010E0201376F010E386F1D0EC7
:10268C000B6E690E0C6EA50E0D6E0D2EFED70C2E5C
:10269C00FCD70B2EFAD784BC01D0FDD71D0E0B6EC8
:1026AC00690E0C6EA50E0D6E0D2EFED70C2EFCD7E2
:1026BC000B2EFAD747D0020130C2E9FF31C2EAFF34
:1026CC00EECF01F001C035F20150361907E1000ED2
:1026DC00FF0A02E1FF0E361901E025D00A0E335D28
:1026EC00446F456B000E455B34C246F2000E476FDB
:1026FC0033C248F2000E496F180E4827000E4923CA
:10270C00090E34254A6F4B6B000E4B234C6BA0EC1F
:10271C000EF035C244F233C245F234C246F278ECC4
:10272C000DF035C236F28AD6396B3A6B3B6B010130
:10273C00F051EE2502013C6F0101F151EF21020134
:06274C003D6F18DD1200D4
:10275200025006180E6E086A096A0B6A0350076473
:102762009CEF14F006500A6E068E028E03500B6E1A
:102772000750036E000E0B64ECEF13F00B50075E74
:10278200D8B48DEF14F0070E07645BEF14F0075E08
:1027920000C008F001C000F002C001F0026A074E5A
:1027A2008DEF14F0076430EF14F0075E00C008F0FC
:1027B20001C000F0016A074E8DEF14F007640EEFBE
:1027C20014F0075E00C008F0006A074E8DEF14F0A7
:1027D2000764F5EF13F00AC002F005C001F004C06F
:1027E20000F0086AB9EF15F0030E076400EF14F069
:1027F200075E08380F0B086E074E8DEF14F0D89065
:102802000832074E8DEF14F0D8900832074E8DEF44
:1028120014F0D89008328DEF14F0030E07641FEF06
:1028220014F0075E08380F0B086E0038F00B08260C
:1028320000380F0B006E074E8DEF14F0D890003267
:102842000832074E8DEF14F0D89000320832074E4E
:102852008DEF14F0D890003208328DEF14F0030E91
:10286200076447EF14F0075E08380F0B086E003854
:10287200F00B082600380F0B006E0138F00B002613
:1028820001380F0B016E074E8DEF14F0D890013214
:1028920000320832074E8DEF14F0D8900132003228
:1028A2000832074E8DEF14F0D89001320032083210
:1028B2008DEF14F0030E076478EF14F0075E08380A
:1028C2000F0B086E0038F00B082600380F0B006E55
:1028D2000138F00B002601380F0B016E0238F00BA5
:1028E200012602380F0B026E074E8DEF14F0D890BE
:1028F2000232013200320832074E8DEF14F0D890C6
:102902000232013200320832074E8DEF14F0D890B5
:102912000232013200320832096A000E0EAE81EF35
:1029220015F0081E001E011E021E082A00220122A6
:10293200022281EF15F00750D8A4A2EF14F0B9EFEC
:1029420015F0096A02C00AF0028E068E0750035C77
:10295200076ED8B474EF15F0070E076442EF15F056
:10296200075E0450096E0550046E0650056E066A35
:10297200074E74EF15F0070E076417EF15F0075EA8
:102982000450096E0550046E056A074E74EF15F087
:10299200070E0764F5EF14F0075E0450096E046A2F
:1029A200074E74EF15F0070E0764DCEF14F00AC04F
:1029B20002F0B9EF15F0030E0764E7EF14F0075EBB
:1029C20009380F0B096E074E74EF15F0D8900932D3
:1029D200074E74EF15F0D8900932074E74EF15F0D8
:1029E200D890093274EF15F0030E076406EF15F064
:1029F200075E09380F0B096E0438F00B09260438FC
:102A02000F0B046E074E74EF15F0D89004320932A2
:102A1200074E74EF15F0D89004320932074E74EF66
:102A220015F0D8900432093274EF15F0030E0764E2
:102A32002EEF15F0075E09380F0B096E0438F00B04
:102A4200092604380F0B046E0538F00B04260538EE
:102A52000F0B056E074E74EF15F0D8900532043255
:102A62000932074E74EF15F0D8900532043209325C
:102A7200074E74EF15F0D89005320432093274EF24
:102A820015F0030E07645FEF15F0075E09380F0BB0
:102A9200096E0438F00B092604380F0B046E053852
:102AA200F00B042605380F0B056E0638F00B0526D1
:102AB20006380F0B066E074E74EF15F0D8900632EB
:102AC200053204320932074E74EF15F0D8900632FF
:102AD200053204320932074E74EF15F0D8900632EF
:102AE200053204320932086A000E0EAE81EF15F08B
:102AF200091E041E051E061E092A0422052206229C
:102B020009500826045000220550012206500222D4
:102B12000EBE98EF15F0D8A0A7EF15F002320132E1
:102B220000320832033EA7EF15F0B3EF15F0D8B02C
:102B3200ADEF15F0000E081E001E011E021E082A2F
:102B42000022012202220A7EADEF15F0010E0C6E68
:102B5200D8EC0EF0BBEF15F0020E0C6ED8EC0EF0B6
:102B6200BBEF15F0040E0C6ECAEC0DF0BBEF15F0C6
:062B7200000E0C6E1200C3
:102B78000B800BAEC8EF15F0026A0AAEFF0E026EAC
:0C2B8800016E006E0A360232FF0E1200D1
:102B94000201306B316B326B336B346B356B396BD9
:102BA4003A6B3B6B0101F051EE2502013C6F0101D0
:102BB400F151EF2102013D6FC0EC10F0460E02010D
:102BC4004D6FE50E4E6F000E4F6F3C0E506F3C0E76
:102BD400516F0AEC0DF0500E0201396F000E3A6F7E
:102BE400680E3B6F000E3C6FA00E3D6F000E3E6FF3
:102BF4005A0E3F6F000E406F080E416F5FEC10F0ED
:102C04000201306B316B000E315D02E1100E305D5C
:102C140051E230C200F031C201F0600E046E000EC9
:102C2400056E00EC04F000C032F201C033F200C0C3
:102C340034F201C035F2600E3225016E000E3321EC
:102C4400026E0250355D02E10150345D2FE2320E16
:102C54003025396F22EC11F034C200F035C201F096
:102C6400003600900136100E0024396F000E01204A
:102C74003A6F2CEC10F000C026F001C027F0D00E03
:102C84000C6EC90E0D6E0D2EFED70C2EFCD7000057
:102C94000000000E271802E12650000A03E000019C
:102CA400D78104D00201344B352BC5D70201304BF8
:102CB400312BA9D7306B316B000E315D02E1100E60
:102CC400305D2FE2540E3025396F22EC11F030C202
:102CD40000F031C201F0003600900136200E0024CD
:102CE400396F000E01203A6FE1EC0FF000C026F0BE
:102CF40001C027F0D00E0C6EC90E0D6E0D2EFED73E
:102D04000C2EFCD700000000000E271802E126500C
:102D1400000A03E00001D78104D00201304B312BBB
:102D2400CBD70201396B3A6B3B6B0101F051EE25B5
:102D340002013C6F0101F151EF2102013D6FC0EC32
:102D440010F02A0E02014D6FE30E4E6F000E4F6F0E
:102D5400080E506F3C0E516F0AEC0DF0F40E0B6E22
:102D6400820E0C6E050E0D6E0D2EFED70C2EFCD7AA
:102D74000B2EFAD70201396B3A6B3B6B0101F05110
:102D8400EE2502013C6F0101F151EF2102013D6F7B
:102D9400C0EC10F03E0E02014D6FE30E4E6F000EBC
:102DA4004F6F080E506F3C0E516F0AEC0DF0F40E8D
:102DB4000B6E820E0C6E050E0D6E0D2EFED70C2EB4
:102DC400FCD70B2EFAD70201396B3A6B3B6B01012E
:102DD400F051EE2502013C6F0101F151EF21020196
:102DE4003D6FC0EC10F0200E0201396F000E3A6FF7
:102DF400020E3B6F000E3C6FC9EC0FF0200E020177
:102E0400396F000E3A6FE1EC0FF000C026F001C0FC
:102E140027F0000E011802E10050000A2AE0396B85
:102E24003A6B3B6B0101F051EE2502013C6F01014D
:102E3400F151EF2102013D6FC0EC10F01D0E0201B3
:102E44004D6FE10E4E6F000E4F6F080E506F3C0E2B
:102E5400516F0AEC0DF0F40E0B6E820E0C6E050E23
:102E64000D6E0D2EFED70C2EFCD70B2EFAD70001BB
:102E7400D7810001D7A104D0D7B302D0D78307D01C
:102E8400D7A105D0D7A303D0D7A301D0D7931200DD
:102E94000201356BFF0E366F376B386B0101F4831B
:102EA400F4C195F2ECEC03F00101F481F4C195F264
:102EB400ECEC03F033C200F00032009E0032009EBE
:102EC4000032009E030E0024026E02C0FFF034C2E2
:102ED40000F00032009E0032009E0032009E00C0CE
:102EE400FEF002C039F200C03AF2B0EC10F0020178
:102EF4003751000AD8A47AD13851000AD8A476D11F
:102F0400040084B885D030C2E9FF31C2EAFF3251EF
:102F1400EE5CD8B07DD00D0E0B6E2D0E0C6ED70E60
:102F24000D6E0D2EFED70C2EFCD70B2EFAD70000FB
:102F3400000030C2E9FF31C2EAFFEE50F00830E38E
:102F440030C2E9FF31C2EAFF30C2E1FF31C2E2FF21
:102F54000A0EEE260A0E335D446F456B000E455B88
:102F640034C246F2000E476F33C248F2000E496F76
:102F7400180E4827000E4923090E34254A6F4B6B5F
:102F8400000E4B234C6BA0EC0EF035C244F233C25E
:102F940045F234C246F278EC0DF035C236F22BD04D
:102FA40030C2E1FF31C2E2FF32C2E6FF0A0E335DF6
:102FB400446F456B000E455B34C246F2000E476F0A
:102FC40033C248F2000E496F180E4827000E4923F9
:102FD400090E34254A6F4B6B000E4B234C6BA0EC4F
:102FE4000EF035C244F233C245F234C246F278ECF4
:102FF4000DF035C236F230C2E9FF31C2EAFF325178
:10300400EE5C06E330C2E1FF31C2E2FF32C2E6FF0A
:1030140084BA45D030C2E9FF31C2EAFFEE5000085D
:103024003EE284A83CD00D0E0B6E2D0E0C6ED70E16
:103034000D6E0D2EFED70C2EFCD70B2EFAD70000EA
:10304400000030C2E9FF31C2EAFF30C2E1FF31C201
:10305400E2FFE6060A0E335D446F456B000E455BE6
:1030640034C246F2000E476F33C248F2000E496F75
:10307400180E4827000E4923090E34254A6F4B6B5E
:10308400000E4B234C6BA0EC0EF035C244F233C25D
:1030940045F234C246F278EC0DF035C236F284BE05
:1030A40041D030C2E9FF31C2EAFFEE5000083AE2F3
:1030B40084A838D00D0E0B6E2D0E0C6ED70E0D6E2F
:1030C4000D2EFED70C2EFCD70B2EFAD700000000D5
:1030D40030C2E1FF31C2E2FFE66A0A0E335D446F9B
:1030E400456B000E455B34C246F2000E476F33C297
:1030F40048F2000E496F180E4827000E4923090EA6
:1031040034254A6F4B6B000E4B234C6BA0EC0EF036
:1031140035C244F233C245F234C246F278EC0DF0C3
:1031240035C236F284BC29D00101F493F4C195F27E
:10313400ECEC03F00001C22B010E0201376F010E0B
:10314400386F1D0E0B6E690E0C6EA50E0D6E0D2ED6
:10315400FED70C2EFCD70B2EFAD784BC01D0FDD79A
:103164001D0E0B6E690E0C6EA50E0D6E0D2EFED788
:103174000C2EFCD70B2EFAD748D0020130C2E9FF3F
:1031840031C2EAFFEECF01F001C035F20150361929
:1031940007E1000EFF0A02E1FF0E361901E025D017
:1031A4000A0E335D446F456B000E455B34C246F234
:1031B400000E476F33C248F2000E496F180E4827BD
:1031C400000E4923090E34254A6F4B6B000E4B2326
:1031D4004C6BA0EC0EF035C244F233C245F234C25B
:1031E40046F278EC0DF035C236F281D6396B3A6B83
:1031F4003B6B0101F051EE2502013C6F0101F151DD
:0C320400EF2102013D6FC0EC10F0120041
:10321000200E0201396F000E3A6FE1EC0FF018EC4E
:1032200010F000C0B8F101C0B9F102C0BAF103C09A
:10323000BBF1680E0C6EE40E0D6E0D2EFED70C2E3B
:10324000FCD70000220E396F000E3A6FE1EC0FF050
:1032500018EC10F000C0B2F101C0B3F102C0B4F13B
:1032600003C0B5F1680E0C6EE40E0D6E0D2EFED788
:103270000C2EFCD70000240E396F000E3A6FE1ECE3
:103280000FF018EC10F000C0CAF101C0CBF102C081
:10329000CCF103C0CDF1680E0C6EE40E0D6E0D2E58
:1032A000FED70C2EFCD70000260E396F000E3A6FA9
:1032B000E1EC0FF018EC10F000C0C4F101C0C5F152
:1032C00002C0C6F103C0C7F1680E0C6EE40E0D6EAD
:1032D0000D2EFED70C2EFCD70000280E396F000EE5
:1032E0003A6FE1EC0FF018EC10F000C0BCF101C037
:1032F000BDF102C0BEF103C0BFF1680E0C6EE40E5A
:103300000D6E0D2EFED70C2EFCD700002A0E396F45
:10331000000E3A6FE1EC0FF018EC10F000C0C0F1B5
:1033200001C0C1F102C0C2F103C0C3F1680E0C6E4E
:10333000E40E0D6E0D2EFED70C2EFCD700002C0EC9
:10334000396F000E3A6FE1EC0FF018EC10F000C08E
:10335000EAF101C0EBF102C0ECF103C0EDF1680E3F
:103360000C6EE40E0D6E0D2EFED70C2EFCD7000059
:103370002E0E396F000E3A6FE1EC0FF018EC10F0E2
:1033800000C0F5F101C0F6F102C0F7F103C0F8F199
:10339000680E0C6EE40E0D6E0D2EFED70C2EFCD7B3
:1033A0000000300E396F000E3A6FE1EC0FF018ECB0
:1033B00010F000C0E2F101C0E3F102C0E4F103C08B
:1033C000E5F1680E0C6EE40E0D6E0D2EFED70C2E80
:1033D000FCD70000320E396F000E3A6FE1EC0FF0AF
:1033E00018EC10F000C0E6F101C0E7F102C0E8F10E
:1033F00003C0E9F1680E0C6EE40E0D6E0D2EFED7C3
:103400000C2EFCD70000340E396F000E3A6FE1EC41
:103410000FF018EC10F000C0D6F101C0D7F102C0D7
:10342000D8F103C0D9F1680E0C6EE40E0D6E0D2EAE
:10343000FED70C2EFCD70000360E396F000E3A6F07
:10344000E1EC0FF018EC10F000C0DAF101C0DBF194
:1034500002C0DCF103C0DDF1680E0C6EE40E0D6EEF
:103460000D2EFED70C2EFCD70000380E396F000E43
:103470003A6FE1EC0FF018EC10F000C0D2F101C08F
:10348000D3F102C0D4F103C0D5F1680E0C6EE40E86
:103490000D6E0D2EFED70C2EFCD700003A0E396FA4
:1034A000000E3A6FE1EC0FF018EC10F000C0F6F0EF
:1034B00001C0F7F002C0F8F003C0F9F0680E0C6E1E
:1034C000E40E0D6E0D2EFED70C2EFCD700003C0E28
:1034D000396F000E3A6FE1EC0FF018EC10F000C0FD
:1034E000F2F001C0F3F002C0F4F003C0F5F0680E92
:1034F0000C6EE40E0D6E0D2EFED70C2EFCD70000C8
:103500003E0E396F000E3A6FE1EC0FF018EC10F040
:1035100000C0FAF001C0FBF002C0FCF003C0FDF0F7
:10352000680E0C6EE40E0D6E0D2EFED70C2EFCD721
:103530000000396B3A6B3B6B0101F051EE25020143
:103540003C6F0101F151EF2102013D6FC0EC10F021
:10355000F50E02014D6FE50E4E6F000E4F6F500ECF
:10356000506F300E516F0AEC0DF0350E02014D6FA9
:10357000E80E4E6F000E4F6F600E506F400E516F91
:103580000AEC0DF0CB0E0B6EEC0E0C6E840E0D6E75
:103590000D2EFED70C2EFCD70B2EFAD700001200F2
:1035A0009FEC09F0D00E02014D6FE8EC09F030C23B
:1035B0004DF2E8EC09F09FEC09F0D10E02014D6FDD
:1035C000E8EC09F002014D6BF6EC0AF000C031F2B4
:1035D00092EC09F0005202E10000FAD75AEC0BF02D
:1035E000D00E0C6EC90E0D6E0D2EFED70C2EFCD714
:1035F0000000000031C239F2C3EC0EF006D00D2EEF
:0C360000FED70C2EFCD7000000001200CA
:10360C00020E0201306FC6DF00C02DF0010E306FCC
:10361C00C1DF00C02CF0040E306FBCDF00C02EF0F8
:10362C00050E306FB7DF00C030F0060E306FB2DF22
:10363C0000C02FF0210E0B6E780E0C6E980E0D6ED6
:10364C000D2EFED70C2EFCD70B2EFAD70000120035
:10365C00C3C000F0000E016E003601360090100E53
:10366C0000240201396F000E01203A6F2CEC10F08F
:10367C0018EC10F000C0B8F101C0B9F102C0BAF1F9
:10368C0003C0BBF1030E0B6E700E0C6E5C0E0D6E58
:10369C000D2EFED70C2EFCD70B2EFAD70000C3C074
:1036AC0000F0000E016E003601360090D00E0024A2
:1036BC00396F000E01203A6F2CEC10F018EC10F062
:1036CC0000C0B2F101C0B3F102C0B4F103C0B5F156
:1036DC00030E0B6E700E0C6E5C0E0D6E0D2EFED767
:1036EC000C2EFCD70B2EFAD70000C3C000F0000E36
:1036FC00016E003601360090900E0024396F010ED9
:10370C0001203A6F2CEC10F018EC10F000C0CAF14C
:10371C0001C0CBF102C0CCF103C0CDF1030E0B6E96
:10372C00700E0C6E5C0E0D6E0D2EFED70C2EFCD793
:10373C000B2EFAD70000C3C000F0000E016E00364D
:10374C0001360090500E0024396F020E01203A6FA2
:10375C002CEC10F018EC10F000C0C4F101C0C5F155
:10376C0002C0C6F103C0C7F1030E0B6E700E0C6ED7
:10377C005C0E0D6E0D2EFED70C2EFCD70B2EFAD731
:10378C000000C3C000F0000E016E00360136009040
:10379C00100E0024396F030E01203A6F2CEC10F040
:1037AC0018EC10F000C0BCF101C0BDF102C0BEF1BC
:1037BC0003C0BFF1030E0B6E700E0C6E5C0E0D6E23
:1037CC000D2EFED70C2EFCD70B2EFAD70000C3C043
:1037DC0000F0000E016E003601360090D00E002471
:1037EC00396F030E01203A6F2CEC10F018EC10F02E
:1037FC0000C0C0F101C0C1F102C0C2F103C0C3F1ED
:10380C00030E0B6E700E0C6E5C0E0D6E0D2EFED735
:10381C000C2EFCD70B2EFAD70000C3C000F0000E04
:10382C00016E003601360090900E0024396F040EA4
:10383C0001203A6F2CEC10F018EC10F000C0EAF1FB
:10384C0001C0EBF102C0ECF103C0EDF1030E0B6E05
:10385C00700E0C6E5C0E0D6E0D2EFED70C2EFCD762
:10386C000B2EFAD70000C3C000F0000E016E00361C
:10387C0001360090500E0024396F050E01203A6F6E
:10388C002CEC10F018EC10F000C0F5F101C0F6F1C2
:10389C0002C0F7F103C0F8F1030E0B6E700E0C6E44
:1038AC005C0E0D6E0D2EFED70C2EFCD70B2EFAD700
:1038BC000000C3C000F0000E016E0036013600900F
:1038CC00100E0024396F060E01203A6F2CEC10F00C
:1038DC0018EC10F000C0E2F101C0E3F102C0E4F119
:1038EC0003C0E5F1030E0B6E700E0C6E5C0E0D6ECC
:1038FC000D2EFED70C2EFCD70B2EFAD70000C3C012
:10390C0000F0000E016E003601360090D00E00243F
:10391C00396F060E01203A6F2CEC10F018EC10F0F9
:10392C0000C0E6F101C0E7F102C0E8F103C0E9F123
:10393C00030E0B6E700E0C6E5C0E0D6E0D2EFED704
:10394C000C2EFCD70B2EFAD70000C3C000F0000ED3
:10395C00016E003601360090900E0024396F070E70
:10396C0001203A6F2CEC10F018EC10F000C0D6F1DE
:10397C0001C0D7F102C0D8F103C0D9F1030E0B6E10
:10398C00700E0C6E5C0E0D6E0D2EFED70C2EFCD731
:10399C000B2EFAD70000C3C000F0000E016E0036EB
:1039AC0001360090500E0024396F080E01203A6F3A
:1039BC002CEC10F018EC10F000C0DAF101C0DBF1C7
:1039CC0002C0DCF103C0DDF1030E0B6E700E0C6E49
:1039DC005C0E0D6E0D2EFED70C2EFCD70B2EFAD7CF
:1039EC000000C3C000F0000E016E003601360090DE
:1039FC00100E0024396F090E01203A6F2CEC10F0D8
:103A0C0018EC10F000C0D2F101C0D3F102C0D4F117
:103A1C0003C0D5F1030E0B6E700E0C6E5C0E0D6EAA
:103A2C000D2EFED70C2EFCD70B2EFAD70000C3C0E0
:103A3C0000F0000E016E003601360090D00E00240E
:103A4C00396F090E01203A6F2CEC10F018EC10F0C5
:103A5C0000C0F6F001C0F7F002C0F8F003C0F9F0B6
:103A6C00030E0B6E700E0C6E5C0E0D6E0D2EFED7D3
:103A7C000C2EFCD70B2EFAD70000C3C000F0000EA2
:103A8C00016E003601360090900E0024396F0A0E3C
:103A9C0001203A6F2CEC10F018EC10F000C0F2F092
:103AAC0001C0F3F002C0F4F003C0F5F0030E0B6E8E
:103ABC00700E0C6E5C0E0D6E0D2EFED70C2EFCD700
:103ACC000B2EFAD70000C3C000F0000E016E0036BA
:103ADC0001360090500E0024396F0B0E01203A6F06
:103AEC002CEC10F018EC10F000C0FAF001C0FBF058
:103AFC0002C0FCF003C0FDF0030E0B6E700E0C6EDA
:103B0C005C0E0D6E0D2EFED70C2EFCD70B2EFAD79D
:103B1C0000000101E06BE16BB66BB76BB06BB16B86
:103B2C00C86BC96BF26BF36BDE6BDF6BCE6BCF6B61
:103B3C00D06BD16B2A6B2B6B286B296B346B356B71
:103B4C008A6B8B6B886B896B8E6B8F6B8C6B8D6BB5
:063B5C00866B876B12006E
:103B62000B6A0C6A0A6A0350D8B4FBEF1DF0028E8E
:103B72008E0E035E03BEC3EF1DF0D8B4C3EF1DF07B
:103B8200FFEF1DF0036C080E035CD8A0DAEF1DF006
:103B9200036E013602C001F0026A080E035CD8A06F
:103BA200DAEF1DF00136016A0350D8A4D890E4EF91
:103BB2001DF00350D8B4E4EF1DF0D8900232013268
:103BC200032EDEEF1DF00BBC01A0F1EF1DF0D8A01B
:103BD200F1EF1DF0012AD8B4022A02BE0EEF1EF048
:103BE2000AAE14EF1EF0021E011E012AD8B4022AE8
:103BF20014EF1EF0026A016A14EF1EF00B800BAE86
:103C020018EF1EF0026A0AAE18EF1EF0FF0E026EE7
:103C1200016E0A36023218EF1EF0010E0C6EBCEC79
:103C220015F01AEF1EF0000E0C6E1AEF1EF0FF0ECA
:0C3C32000C6E0150006E0250016E12007A
:103C3E000201396B3A6B3B6B0101F051EE2502012B
:103C4E003C6F0101F151EF2102013D6FC0EC10F00C
:103C5E00040E02014D6FE50E4E6F000E4F6F320EC9
:103C6E00506F380E516F0AEC0DF0400E0201446F8A
:103C7E00000E456F94EC0EF000C0C4F0680E0C6E92
:103C8E00E40E0D6E0D2EFED70C2EFCD70000C4C018
:103C9E0044F2700E456F480E466F78EC0DF0150E1F
:103CAE000B6E4B0E0C6EBE0E0D6E0D2EFED70C2E29
:103CBE00FCD70B2EFAD70000C40E306F000E316FFA
:103CCE00510E326F700E336F480E346FF6EC11F0EA
:103CDE00400E0201446F000E456FC4C046F215EC53
:103CEE000EF0680E0C6EE40E0D6E0D2EFED70C2E21
:063CFE00FCD700001200DB
:103D04000B6A0350D8B4C8EF1EF002500A6E028E3C
:103D14008E0E035E03AECCEF1EF0036C080E035C44
:103D2400D8A0A7EF1EF0036E013602C001F0026AAC
:103D3400080E035CD8A0A7EF1EF0036E0136016ADB
:103D44000350D8A4D890B1EF1EF00350D8B4B1EF0B
:103D54001EF0D89002320132032EABEF1EF00BBCE2
:103D640001A0BEEF1EF0D8A0BEEF1EF0012AD8B409
:103D7400022A02BEDBEF1EF00AAEE1EF1EF0021EC5
:103D8400011E012AD8B4022AE1EF1EF0026A016A78
:103D9400E1EF1EF00B800BAEE5EF1EF0026A0AAEF7
:103DA400E5EF1EF0FF0E026E016E0A360232E5EFF9
:103DB4001EF0010E0C6EBCEC15F0E7EF1EF0000EC9
:103DC4000C6EE7EF1EF0FF0E0C6E0150006E0250F9
:043DD400016E12006A
:103DD80002012A6B2B6B2C6B2D6B2E6B2F6BDC0E61
:103DE8004D6FE70E4E6F000E4F6F420E506F480E2C
:103DF800516F0AEC0DF0D00E02014D6FE70E4E6FB9
:103E0800000E4F6F420E506F580E516F0AEC0DF0B6
:103E1800500E0201396F000E3A6F680E3B6F000EAC
:103E28003C6FA00E3D6F000E3E6F5A0E3F6F000EA6
:103E3800406F080E416F5FEC10F04C0E02014D6FA1
:103E4800DF0E4E6F000E4F6F010E506F580E516F00
:103E58000AEC0DF0A30E0B6E570E0C6E020E0D6ED3
:103E68000D2EFED70C2EFCD70B2EFAD70000016AB8
:103E78000001D7B3012A01500108D8A051D102018D
:103E88002A6B2B6B000E2B5D02E1100E2A5D44E2BB
:103E98002AC239F222EC11F02AC200F02BC201F03A
:103EA800600E046E000E056E00EC04F000C02CF2EB
:103EB80001C02DF200C02EF201C02FF2600E2C2599
:103EC800016E000E2D21026E02502F5D02E101509D
:103ED8002E5D1FE22EC200F02FC201F000360090C6
:103EE8000136100E0024306F000E0120316F326B46
:103EF800336BD3EC11F0D00E0C6EC90E0D6E0D2E77
:103F0800FED70C2EFCD70000000002012E4B2F2BF1
:103F1800D5D72A4B2B2BB6D72A6B2B6B000E2B5DD4
:103F280002E1100E2A5D24E2190E2A25396F22ECCF
:103F380011F02AC200F02BC201F0003600900136C1
:103F4800200E0024396F000E01203A6F3B6B3C6B4A
:103F5800C9EC0FF0D00E0C6EC90E0D6E0D2EFED7EB
:103F68000C2EFCD70000000002012A4B2B2BD6D7C1
:103F7800CAEC15F0D7A121D0D7B31FD0D791020131
:103F8800396B3A6B3B6B0101F051EE2502013C6F36
:103F98000101F151EF2102013D6FC0EC10F0370E25
:103FA80002014D6FE40E4E6F000E4F6F340E506FCE
:103FB8003C0E516F0AEC0DF0B2D00001D7A191D0A0
:103FC800D7A38FD0D7910201396B3A6B3B6B0101B4
:103FD800F051EE2502013C6F0101F151EF21020180
:103FE8003D6FC0EC10F0650E02014D6FDF0E4E6F95
:103FF800000E4F6F040E506F3C0E516F0AEC0DF01F
:10400800A30E0B6E570E0C6E020E0D6E0D2EFED704
:104018000C2EFCD70B2EFAD700000201396B3A6B35
:104028003B6B0101F051EE2502013C6F0101F1519A
:10403800EF2102013D6FC0EC10F084AE51D0C80EE4
:1040480002014D6FE30E4E6F000E4F6F300E506F32
:104058002E0E516F0AEC0DF0740E02014D6FE00E3A
:104068004E6F000E4F6F240E506F3E0E516F0AECCC
:104078000DF0960E02014D6FE60E4E6F000E4F6F5B
:10408800440E506F4E0E516F0AEC0DF0CE0E020129
:104098004D6FE60E4E6F000E4F6F440E506F5E0E62
:1040A800516F0AEC0DF0DB0E02014D6FE30E4E6FFF
:1040B800000E4F6F300E506F6E0E516F0AEC0DF000
:1040C800660E02014D6FE50E4E6F000E4F6F3C0EEF
:1040D800506F7E0E516F0AEC0DF00001D793ADD7EB
:1040E8001FD00201396B3A6B3B6B0101F051EE2591
:1040F80002013C6F0101F151EF2102013D6FC0EC5B
:1041080010F0F30E02014D6FE00E4E6F000E4F6F70
:10411800280E506F3C0E516F0AEC0DF001D0A7D657
:104128000101E06BE16BB66BB76BB06BB16BC86B41
:10413800C96BF26BF36BDE6BDF6BCE6BCF6BD06B47
:10414800D16B2A6B2B6B286B296B346B356B8A6BA5
:104158008B6B886B896B8E6B8F6B8C6B8D6B866BA7
:10416800876B08EC19F00201396B3A6B3B6B010164
:10417800F051EE2502013C6F0101F151EF210201DE
:104188003D6FC0EC10F0040E02014D6FE60E4E6F4D
:10419800000E4F6F400E506F300E516F0AEC0DF04D
:1041A800E60E02014D6FE50E4E6F000E4F6F400E8A
:1041B800506F400E516F0AEC0DF0CB0E0B6EEC0EEB
:1041C8000C6E840E0D6E0D2EFED70C2EFCD70B2E0A
:0641D800FAD700001200FE
:1041DE0000C008F00150006E016A026A036A0B6AA1
:1041EE000C6A016A026A036A960E036E0A6A00AED0
:1041FE0007EF21F0081E001E082AD8B4002A0A8EE6
:10420E0000C001F008C000F0086A026A3FEC0DF031
:02421E0012008C
:10422000086A096A000E0762036495EF21F00250E4
:1042300006180A6E075003267E0ED8A026EF21F03E
:10424000035ED8B09AEF21F02AEF21F0035ED8A0E8
:104250009FEF21F0028E068E02C00EF001C00BF01F
:1042600000C00DF000500402F4CF0CF00150050224
:10427000F4CF00F0F3CF08F00402F3500C26F45012
:104280000822000E00220D500502F3500C26F450B7
:104290000822000E002202500402F3500826F450B7
:1042A000002202500502016A000E0122F35000268E
:1042B000F45001220D500602F3500826F45000225B
:1042C000026A000E012202220B500602F350002661
:1042D000F4500122000E02220E500602F350012675
:1042E000F450022202BE7DEF21F00836003601367E
:1042F00002360306D8B49FEF21F090EF21F0D8806A
:10430000800E08640030000E002201220222D8A094
:1043100090EF21F0023201320032034A9AEF21F08D
:104320000AAE029E000EA2EF21F0010E7AEC0CF014
:10433000A2EF21F0020ECAEC0DF0A2EF21F0040E64
:064340006DEC0CF0120010
:08434600067EA9EC13F0120041
:10434E000A6A0350D8A40A800750D8A40A820A50D9
:10435E00D8B40AEF22F0030AD8B4C3EF21F00AB0A2
:10436E00BEEF21F006AE08EF22F006EF22F002AE0D
:10437E0006EF22F008EF22F00250800B0A6E029E2A
:10438E000650800B069E0A18D8B4D4EF21F00A50BE
:10439E00D8B406EF22F008EF22F00750035CD8B431
:1043AE00DEEF21F0D8A0FAEF21F000EF22F0065058
:1043BE00025CD8B4E8EF21F0D8A0FAEF21F000EFBC
:1043CE0022F00550015CD8B4F2EF21F0D8A0FAEF3C
:1043DE0021F000EF22F00450005CD8B40AEF22F076
:1043EE00D8B000EF22F00A52D8B408EF22F006EF50
:1043FE0022F00A52D8B406EF22F008EF22F0D8804D
:0E440E001200D8901200D880D884120012003C
:10441C0002012A6B2A51000AD8A47DD1396B3A6B60
:10442C003B6B0101F051EE2502013C6F0101F15192
:10443C00EF2102013D6FC0EC10F0C00E02014D6F78
:10444C00E40E4E6F000E4F6F380E506F240E516FEE
:10445C000AEC0DF0290E0B6E960E0C6E7F0E0D6E87
:10446C000D2EFED70C2EFCD70B2EFAD7040E020104
:10447C00306FD0EC1AF000C02EF0050E306FD0EC7F
:10448C001AF000C030F0060E306FD0EC1AF000C0FD
:10449C002FF02EC044F2400E456F400E466F78EC64
:1044AC000DF030C044F2700E456F400E466F78EC44
:1044BC000DF02FC044F29C0E456F400E466F78EC09
:1044CC000DF07A0E0B6EC10E0C6E810E0D6E0D2E54
:1044DC00FED70C2EFCD70B2EFAD7000000002E0EA8
:1044EC00306F000E316F1F0E326F400E336F400E67
:1044FC00346F4AEC17F0520E0B6E2B0E0C6E000E36
:10450C000D6E0D2EFED70C2EFCD70B2EFAD70000FD
:10451C00300E0201306F000E316F0C0E326F700EC8
:10452C00336F400E346F4AEC17F0520E0B6E2B0E9D
:10453C000C6E000E0D6E0D2EFED70C2EFCD70B2E16
:10454C00FAD700002F0E0201306F000E316F630E90
:10455C00326F9C0E336F400E346F4AEC17F0520ED4
:10456C000B6E2B0E0C6E000E0D6E0D2EFED70C2E40
:10457C00FCD70B2EFAD70000040E0201306F2EC0B0
:10458C0031F2B4EC11F0050E0201306F30C031F293
:10459C00B4EC11F0060E0201306F2FC031F2B4EC06
:1045AC0011F00201396B3A6B3B6B0101F051EE25B6
:1045BC0002013C6F0101F151EF2102013D6FC0EC92
:1045CC0010F0320E02014D6FE10E4E6F000E4F6F68
:1045DC00380E506F240E516F0AEC0DF07A0E0B6EE4
:1045EC00C10E0C6E810E0D6E0D2EFED70C2EFCD74F
:1045FC000B2EFAD700000000020E0201306FD0EC37
:10460C001AF000C02DF0010E306FD0EC1AF000C083
:10461C002CF0306BD0EC1AF000C033F02DC044F20B
:10462C00400E456F400E466F78EC0DF02CC044F2F6
:10463C00700E456F400E466F78EC0DF033C044F2AF
:10464C00A80E456F400E466F78EC0DF02D0E306FB6
:10465C00000E316F180E326F400E336F400E346FF8
:10466C004AEC17F0520E0B6E2B0E0C6E000E0D6EEC
:10467C000D2EFED70C2EFCD70B2EFAD700002C0ECD
:10468C000201306F000E316F3B0E326F700E336FC4
:10469C00400E346F4AEC17F0520E0B6E2B0E0C6E54
:1046AC00000E0D6E0D2EFED70C2EFCD70B2EFAD74E
:1046BC000000330E0201306F000E316F3B0E326F73
:1046CC00A80E336F400E346F4AEC17F0520E0B6E7F
:1046DC002B0E0C6E000E0D6E0D2EFED70C2EFCD775
:1046EC000B2EFAD70000020E0201306F2DC031F2F2
:1046FC00B4EC11F0010E0201306F2CC031F2B4ECAD
:10470C0011F00201306B33C031F2B4EC11F0010E38
:10471C0002012A6F7FD6520E0B6E2B0E0C6E000E02
:10472C000D6E0D2EFED70C2EFCD70B2EFAD70000DB
:02473C00120069
:10473E00C3C000F0000E016E003601360090100E60
:10474E0000240201306F000E0120316FB8C100F05D
:10475E00B9C101F0BAC102F0BBC103F0B1EC1DF05A
:10476E0000C032F201C033F2D3EC11F0680E0C6EC1
:10477E00E40E0D6E0D2EFED70C2EFCD70000C3C01E
:10478E0000F0000E016E003601360090D00E0024AF
:10479E000201306F000E0120316FB2C100F0B3C1C3
:1047AE0001F0B4C102F0B5C103F0B1EC1DF000C0D0
:1047BE0032F201C033F2D3EC11F0680E0C6EE40E3F
:1047CE000D6E0D2EFED70C2EFCD70000C3C000F0D0
:1047DE00000E016E003601360090900E002402018C
:1047EE00306F010E0120316FCAC100F0CBC101F054
:1047FE00CCC102F0CDC103F0B1EC1DF000C032F21D
:10480E0001C033F2D3EC11F0680E0C6EE40E0D6E97
:10481E000D2EFED70C2EFCD70000C3C000F0000EEC
:10482E00016E003601360090500E00240201306FEA
:10483E00020E0120316FC4C100F0C5C101F0C6C126
:10484E0002F0C7C103F0B1EC1DF000C032F201C09E
:10485E0033F2D3EC11F0680E0C6EE40E0D6E0D2ECD
:10486E00FED70C2EFCD70000C3C000F0000E016E68
:10487E00003601360090100E00240201306F030E38
:10488E000120316FBCC100F0BDC101F0BEC102F00C
:10489E00BFC103F0B1EC1DF000C032F201C033F223
:1048AE00D3EC11F0680E0C6EE40E0D6E0D2EFED7CD
:1048BE000C2EFCD70000C3C000F0000E016E0036B7
:1048CE0001360090D00E00240201306F030E01203D
:1048DE00316FC0C100F0C1C101F0C2C102F0C3C14D
:1048EE0003F0B1EC1DF000C032F201C033F2D3EC94
:1048FE0011F0680E0C6EE40E0D6E0D2EFED70C2E02
:10490E00FCD70000C3C000F0000E016E0036013669
:10491E000090900E00240201306F040E0120316FC2
:10492E00EAC100F0EBC101F0ECC102F0EDC103F001
:10493E00B1EC1DF000C032F201C033F2D3EC11F035
:10494E00680E0C6EE40E0D6E0D2EFED70C2EFCD7DF
:10495E000000C3C000F0000E016E0036013600905C
:10496E00500E00240201306F050E0120316FF5C18B
:10497E0000F0F6C101F0F7C102F0F8C103F0B1EC9E
:10498E001DF000C032F201C033F2D3EC11F0680E0C
:10499E000C6EE40E0D6E0D2EFED70C2EFCD7000005
:1049AE00C3C000F0000E016E003601360090100EEE
:1049BE0000240201306F060E0120316FE2C100F0BB
:1049CE00E3C101F0E4C102F0E5C103F0B1EC1DF06A
:1049DE0000C032F201C033F2D3EC11F0680E0C6E4F
:1049EE00E40E0D6E0D2EFED70C2EFCD70000C3C0AC
:1049FE0000F0000E016E003601360090D00E00243D
:104A0E000201306F060E0120316FE6C100F0E7C1E2
:104A1E0001F0E8C102F0E9C103F0B1EC1DF000C0F5
:104A2E0032F201C033F2D3EC11F0680E0C6EE40ECC
:104A3E000D6E0D2EFED70C2EFCD70000C3C000F05D
:104A4E00000E016E003601360090900E0024020119
:104A5E00306F070E0120316FD6C100F0D7C101F0C3
:104A6E00D8C102F0D9C103F0B1EC1DF000C032F292
:104A7E0001C033F2D3EC11F0680E0C6EE40E0D6E25
:104A8E000D2EFED70C2EFCD70000C3C000F0000E7A
:104A9E00016E003601360090500E00240201306F78
:104AAE00080E0120316FDAC100F0DBC101F0DCC16C
:104ABE0002F0DDC103F0B1EC1DF000C032F201C016
:104ACE0033F2D3EC11F0680E0C6EE40E0D6E0D2E5B
:104ADE00FED70C2EFCD70000C3C000F0000E016EF6
:104AEE00003601360090100E00240201306F090EC0
:104AFE000120316FD2C100F0D3C101F0D4C102F058
:104B0E00D5C103F0B1EC1DF000C032F201C033F29A
:104B1E00D3EC11F0680E0C6EE40E0D6E0D2EFED75A
:104B2E000C2EFCD70000C3C000F0000E016E003644
:104B3E0001360090D00E00240201306F090E0120C4
:104B4E00316FF6C000F0F7C001F0F8C002F0F9C006
:104B5E0003F0B1EC1DF000C032F201C033F2D3EC21
:104B6E0011F0680E0C6EE40E0D6E0D2EFED70C2E8F
:104B7E00FCD70000C3C000F0000E016E00360136F7
:104B8E000090900E00240201306F0A0E0120316F4A
:104B9E00F2C000F0F3C001F0F4C002F0F5C003F073
:104BAE00B1EC1DF000C032F201C033F2D3EC11F0C3
:104BBE00680E0C6EE40E0D6E0D2EFED70C2EFCD76D
:104BCE000000C3C000F0000E016E003601360090EA
:104BDE00500E00240201306F0B0E0120316FFAC00F
:104BEE0000F0FBC001F0FCC002F0FDC003F0B1EC20
:104BFE001DF000C032F201C033F2D3EC11F0680E9A
:104C0E000C6EE40E0D6E0D2EFED70C2EFCD7000092
:024C1E00120082
:104C20000050086E0150006E0250016E0350026E7B
:104C3000036A0B6A0C6A9E0E036E0A6A020E0C6E01
:064C4000D8EC0EF012009A
:104C46000201186B396B3A6B3B6B0101F051EE2593
:104C560002013C6F0101F151EF2102013D6FC0ECF1
:104C660010F002011851000AD8A4EDD1396B3A6B45
:104C76003B6B0101F051EE2502013C6F0101F15140
:104C8600EF2102013D6FC0EC10F0F30E02014D6FF3
:104C9600E40E4E6F000E4F6F380E506F080E516FB8
:104CA6000AEC0DF02D0E0201626F010E636F000E0D
:104CB600646F180E656F000E666F67EC09F02D0EB7
:104CC6000201626F030E636F000E646F180E656F4C
:104CD600000E666F67EC09F03E0E0201626F040E6D
:104CE600636F000E646F180E656F000E666F67ECDB
:104CF60009F0EE0E02014D6FE30E4E6F000E4F6F80
:104D06000E0E506F180E516F0AEC0DF0F10E0201E7
:104D16004D6FE80E4E6F000E4F6F1E0E506F280E31
:104D2600516F0AEC0DF02D0E0201626F010E636FDA
:104D3600000E646F380E656F000E666F67EC09F043
:104D46002D0E0201626F030E636F000E646F380E44
:104D5600656F000E666F67EC09F03E0E0201626F2A
:104D6600040E636F000E646F380E656F000E666F7B
:104D760067EC09F0FE0E02014D6FE70E4E6F000E56
:104D86004F6F0E0E506F380E516F0AEC0DF08D0EF0
:104D960002014D6FE40E4E6F000E4F6F0E0E506FF8
:104DA600480E516F0AEC0DF0330E02014D6FDF0E07
:104DB6004E6F000E4F6F0E0E506F580E516F0AEC6D
:104DC6000DF02D0E0201626F010E636F000E646F0F
:104DD600680E656F000E666F67EC09F02D0E020116
:104DE600626F030E636F000E646F680E656F000ED0
:104DF600666F67EC09F03E0E0201626F040E636F88
:104E0600000E646F680E656F000E666F67EC09F042
:104E1600720E02014D6FDE0E4E6F000E4F6F0E0EBC
:104E2600506F680E516F0AEC0DF0520E0B6E2B0E82
:104E36000C6E000E0D6E0D2EFED70C2EFCD70B2E13
:104E4600FAD7000084B858D0010E0201186F00018D
:104E5600C36B0D0E0B6E2D0E0C6ED70E0D6E0D2E3A
:104E6600FED70C2EFCD70B2EFAD7000000002EEC36
:104E76001BF00D0E0B6E2D0E0C6ED70E0D6E0D2E3D
:104E8600FED70C2EFCD70B2EFAD70000000002012D
:104E9600396B3A6B3B6B0101F051EE2502013C6F19
:104EA6000101F151EF2102013D6FC0EC10F0C00E7F
:104EB60002014D6FE60E4E6F000E4F6F500E506F93
:104EC600300E516F0AEC0DF00001C351010F0201C3
:104ED600446F700E456F400E466F78EC0DF0A30ED2
:104EE6000B6E570E0C6E020E0D6E0D2EFED70C2E8F
:104EF600FCD70B2EFAD7000084BA21D0316A0D0EEA
:104F06000B6E2D0E0C6ED70E0D6E0D2EFED70C2EC3
:104F1600FCD70B2EFAD70000000084BA01D0FDD7CB
:104F26000D0E0B6E2D0E0C6ED70E0D6E0D2EFED7C2
:104F36000C2EFCD70B2EFAD70000000084D084BCC0
:104F460081D00201396B3A6B3B6B0101F051EE25C2
:104F560002013C6F0101F151EF2102013D6FC0ECEE
:104F660010F0ECEC1EF0110E0B6E3C0E0C6ECB0E20
:104F76000D6E0D2EFED70C2EFCD70B2EFAD7010E7A
:104F86000201186F0001C36B0D0E0B6E2D0E0C6E19
:104F9600D70E0D6E0D2EFED70C2EFCD70B2EFAD784
:104FA600000000000D0E0B6E2D0E0C6ED70E0D6E52
:104FB6000D2EFED70C2EFCD70B2EFAD700000000C4
:104FC6000201396B3A6B3B6B0101F051EE25020190
:104FD6003C6F0101F151EF2102013D6FC0EC10F071
:104FE600080E02014D6FE10E4E6F000E4F6F500E10
:104FF600506F200E516F0AEC0DF0DC0E02014D6F62
:10500600E60E4E6F000E4F6F500E506F300E516F02
:105016000AEC0DF00001C351010F0201446F700E3E
:10502600456F400E466F78EC0DF0A30E0B6E570ED3
:105036000C6E020E0D6E0D2EFED70C2EFCD70B2E0F
:08504600FAD700000ED612009B
:10504E0018C200F019C201F01AC202F01BC203F01E
:10505E0082EC1EF000C01EF201C01FF2EFEC20F039
:10506E0000C004F001C005F002C006F003C007F056
:10507E0018C200F019C201F01AC202F01BC203F0EE
:10508E00A3EC21F000C020F201C021F202C022F2F6
:10509E0003C023F20201266B276B046A056A066AB7
:1050AE00076A20C200F021C201F022C202F023C220
:1050BE0003F0A7EC21F0010ED8B0000E006E0052E6
:1050CE00D8A4227F20C200F021C201F022C202F039
:1050DE0023C203F0000E046E000E056E200E066E47
:1050EE00820E076E10EC21F082EC1EF000C024F24E
:1050FE0001C025F2046A056A066A076A18C200F042
:10510E0019C201F01AC202F01BC203F0A7EC21F083
:10511E00010ED8B0000E006E005210E026511C2574
:10512E00E16E27511D21E26E2D0EE66E264B272BCA
:10513E001E5100081E6F1F51000E1F57800E1F19A3
:10514E00006E800E030A005C02E1E80E1E5DD8A020
:10515E0085D026511C25286F27511D21296FE80E59
:10516E00046E030E056E1EC200F01FC201F031EC7C
:10517E000EF0300E002628C2E1FF29C2E2FF00C069
:10518E00E6FF0201264B272B26511C25286F27519F
:10519E001D21296F640E046E000E056E1EC200F0F6
:1051AE001FC201F031EC0EF00A0E046E000E056EF9
:1051BE0031EC0EF008C000F009C001F0300E0026F0
:1051CE0028C2E1FF29C2E2FF00C0E6FF0201264B22
:1051DE00272B26511C25286F27511D21296F0A0EBA
:1051EE00046E000E056E1EC200F01FC201F031ECFF
:1051FE000EF00A0E046E000E056E31EC0EF008C0B5
:10520E0000F009C001F0300E002628C2E1FF29C2CD
:10521E00E2FF00C0E6FF0201264B272B26511C257C
:10522E00286F27511D21296F0A0E046E000E056E80
:10523E001EC200F01FC201F031EC0EF008C000F0EB
:10524E0009C001F0300E002628C2E1FF29C2E2FF9C
:10525E0000C0E6FF0201264B272BBAD0800E1F1985
:10526E00006E800E005C02E1640E1E5D60E326514E
:10527E001C25286F27511D21296F640E046E000E08
:10528E00056E1EC200F01FC201F031EC0EF0300EA2
:10529E00002628C2E1FF29C2E2FF00C0E6FF02019C
:1052AE00264B272B26511C25286F27511D21296F90
:1052BE000A0E046E000E056E1EC200F01FC201F033
:1052CE0031EC0EF00A0E046E000E056E31EC0EF08F
:1052DE0008C000F009C001F0300E002628C2E1FF20
:1052EE0029C2E2FF00C0E6FF0201264B272B265102
:1052FE001C25286F27511D21296F0A0E046E000EE2
:10530E00056E1EC200F01FC201F031EC0EF008C097
:10531E0000F009C001F0300E002628C2E1FF29C2BC
:10532E00E2FF00C0E6FF0201264B272B51D0800E74
:10533E001F19006E800E005C02E10A0E1E5D3BE33B
:10534E0026511C25286F27511D21296F0A0E046E28
:10535E00000E056E1EC200F01FC201F031EC0EF001
:10536E00300E002628C2E1FF29C2E2FF00C0E6FF90
:10537E000201264B272B26511C25286F27511D2154
:10538E00296F0A0E046E000E056E1EC200F01FC2BB
:10539E0001F031EC0EF008C000F009C001F0300E43
:1053AE00002628C2E1FF29C2E2FF00C0E6FF02018B
:1053BE00264B272B0DD026511C25E16E27511D2182
:1053CE00E26E300E1E25006E00C0E6FF264B272B28
:1053DE0026511C25E16E27511D21E26E2E0EE66E22
:1053EE00264B272B26511C25E16E27511D21E26EDF
:1053FE00300E2425006E00C0E6FF264B272B2651CB
:0E540E001C25E16E27511D21E26EE66A120098
:10541C0006EC1BF0050E0001C303F3CF00F0F4CF34
:10542C0001F0000E00240201396F0D0E01203A6FBD
:10543C002DC03BF2000E3C6FFFEC10F0050E00018E
:10544C00C303F3CF00F0F4CF01F0000E00240201EF
:10545C00396F0D0E01203A6F394B3A2B2CC03BF2B1
:10546C00000E3C6FFFEC10F0050E0001C303F3CFF0
:10547C0000F0F4CF01F0000E00240201396F0D0E84
:10548C0001203A6F020E3927000E3A232EC03BF250
:10549C00000E3C6FFFEC10F0050E0001C303F3CFC0
:1054AC0000F0F4CF01F0000E00240201396F0D0E54
:1054BC0001203A6F030E3927000E3A2330C03BF21D
:1054CC00000E3C6FFFEC10F0050E0001C303F3CF90
:1054DC0000F0F4CF01F0000E00240201396F0D0E24
:1054EC0001203A6F040E3927000E3A232FC03BF2ED
:1054FC00000E3C6FFFEC10F0210E0B6E780E0C6E54
:10550C00980E0D6E0D2EFED70C2EFCD70B2EFAD747
:04551C000000120079
:10552000200E0201396F000E3A6FB8C100F0B9C108
:1055300001F0BAC102F0BBC103F0B1EC1DF000C034
:105540003BF201C03CF2C9EC0FF0680E0C6EE40EA9
:105550000D6E0D2EFED70C2EFCD70000220E020180
:10556000396F000E3A6FB2C100F0B3C101F0B4C19F
:1055700002F0B5C103F0B1EC1DF000C03BF201C078
:105580003CF2C9EC0FF0680E0C6EE40E0D6E0D2EA1
:10559000FED70C2EFCD70000240E0201396F000E3E
:1055A0003A6FCAC100F0CBC101F0CCC102F0CDC14D
:1055B00003F0B1EC1DF000C03BF201C03CF2C9ECBD
:1055C0000FF0680E0C6EE40E0D6E0D2EFED70C2E35
:1055D000FCD70000260E0201396F000E3A6FC4C1DD
:1055E00000F0C5C101F0C6C102F0C7C103F0B1ECC3
:1055F0001DF000C03BF201C03CF2C9EC0FF0680E98
:105600000C6EE40E0D6E0D2EFED70C2EFCD7000096
:10561000280E0201396F000E3A6FBCC100F0BDC107
:1056200001F0BEC102F0BFC103F0B1EC1DF000C03B
:105630003BF201C03CF2C9EC0FF0680E0C6EE40EB8
:105640000D6E0D2EFED70C2EFCD700002A0E020187
:10565000396F000E3A6FC0C100F0C1C101F0C2C184
:1056600002F0C3C103F0B1EC1DF000C03BF201C079
:105670003CF2C9EC0FF0680E0C6EE40E0D6E0D2EB0
:10568000FED70C2EFCD700002C0E0201396F000E45
:105690003A6FEAC100F0EBC101F0ECC102F0EDC1DC
:1056A00003F0B1EC1DF000C03BF201C03CF2C9ECCC
:1056B0000FF0680E0C6EE40E0D6E0D2EFED70C2E44
:1056C000FCD700002E0E0201396F000E3A6FF5C1B3
:1056D00000F0F6C101F0F7C102F0F8C103F0B1EC3F
:1056E0001DF000C03BF201C03CF2C9EC0FF0680EA7
:1056F0000C6EE40E0D6E0D2EFED70C2EFCD70000A6
:10570000300E0201396F000E3A6FE2C100F0E3C1C2
:1057100001F0E4C102F0E5C103F0B1EC1DF000C0FE
:105720003BF201C03CF2C9EC0FF0680E0C6EE40EC7
:105730000D6E0D2EFED70C2EFCD70000320E02018E
:10574000396F000E3A6FE6C100F0E7C101F0E8C121
:1057500002F0E9C103F0B1EC1DF000C03BF201C062
:105760003CF2C9EC0FF0680E0C6EE40E0D6E0D2EBF
:10577000FED70C2EFCD70000340E0201396F000E4C
:105780003A6FD6C100F0D7C101F0D8C102F0D9C13B
:1057900003F0B1EC1DF000C03BF201C03CF2C9ECDB
:1057A0000FF0680E0C6EE40E0D6E0D2EFED70C2E53
:1057B000FCD70000360E0201396F000E3A6FDAC1D5
:1057C00000F0DBC101F0DCC102F0DDC103F0B1EC9F
:1057D0001DF000C03BF201C03CF2C9EC0FF0680EB6
:1057E0000C6EE40E0D6E0D2EFED70C2EFCD70000B5
:1057F000380E0201396F000E3A6FD2C100F0D3C1EA
:1058000001F0D4C102F0D5C103F0B1EC1DF000C02D
:105810003BF201C03CF2C9EC0FF0680E0C6EE40ED6
:105820000D6E0D2EFED70C2EFCD700003A0E020195
:10583000396F000E3A6FF6C000F0F7C001F0F8C003
:1058400002F0F9C003F0B1EC1DF000C03BF201C062
:105850003CF2C9EC0FF0680E0C6EE40E0D6E0D2ECE
:10586000FED70C2EFCD700003C0E0201396F000E53
:105870003A6FF2C000F0F3C001F0F4C002F0F5C0DE
:1058800003F0B1EC1DF000C03BF201C03CF2C9ECEA
:105890000FF0680E0C6EE40E0D6E0D2EFED70C2E62
:1058A000FCD700003E0E0201396F000E3A6FFAC0BD
:1058B00000F0FBC001F0FCC002F0FDC003F0B1EC51
:1058C0001DF000C03BF201C03CF2C9EC0FF0680EC5
:1058D0000C6EE40E0D6E0D2EFED70C2EFCD70000C4
:0258E0001200B4
:1058E2000201186B196B396B3A6B3B6B0101F0517A
:1058F200EE2502013C6F0101F151EF2102013D6FE2
:10590200C0EC10F00F0E0201446F000E456F880EBE
:10591200466F15EC0EF0030E0B6E700E0C6E5C0EE5
:105922000D6E0D2EFED70C2EFCD70B2EFAD70000D3
:105932000201396B3A6B3B6B0101F051EE2502011A
:105942003C6F0101F151EF2102013D6FC0EC10F0FB
:10595200F30E02014D6FE70E4E6F000E4F6F500EA9
:10596200506F380E516F0AEC0DF0A30E0B6E570EEE
:105972000C6E020E0D6E0D2EFED70C2EFCD70B2ECA
:10598200FAD70000500E0201396F000E3A6F680E0E
:105992003B6F000E3C6FA00E3D6F000E3E6F5A0E25
:1059A2003F6F000E406F080E416F5FEC10F0040075
:1059B200010E0201396F22EC11F0080E446F000E45
:1059C200456F466B15EC0EF0680E0C6EE40E0D6E14
:1059D2000D2EFED70C2EFCD70000020E0201396FED
:1059E20022EC11F0090E446F000E456F466B15EC68
:1059F2000EF0680E0C6EE40E0D6E0D2EFED70C2E00
:105A0200FCD700000201186B196B000E195D02E150
:105A1200100E185D1DE2030E1825396F22EC11F0ED
:105A2200100E1825446F000E1921456F1851010FF1
