:04000000A8EF78F0FD
:1000080000C022F001C021F002C020F003C01FF0A0
:1000180004C01EF005C01DF006C01CF007C01BF090
:1000280008C01AF009C019F00AC018F00BC017F080
:100038000CC016F00EC015F09EA077D39E90630EEC
:10004800CF6EC00ECE6E2A4A2B2A3D4A3E2A3F4A20
:10005800402A0F0E2B5C02E1A00E2A5C05E32A6AF7
:100068002B6A04000201A08D000E3E5C02E1FA0E2C
:100078003D5C03E33D6A3E6A0400030E405C02E116
:10008800E80E3F5C03E33F6A406A040087B804D087
:1000980002019FBB01D09F8B87A82ED002019FAB86
:1000A8002BD00301114B122B02019F9B0101A95177
:1000B8000301125D04E10101A8510301115D1CE374
:1000C80039C300F03AC301F03BC302F03CC303F06C
:1000D800000E046E000E056E000E066E7F0E076E93
:1000E800DCEC1EF000C039F301C03AF302C03BF368
:1000F80003C03CF3116B126B85B204D002019FBDA3
:1001080001D09F8D85A22ED002019FAD2BD0030177
:100118001B4B1C2B02019F9D0101935103011C5D88
:1001280004E10101925103011B5D1CE331C300F09E
:1001380032C301F033C302F034C303F0000E046E7F
:10014800000E056E000E066E7F0E076EDCEC1EF0CC
:1001580000C031F301C032F302C033F303C034F3FB
:100168001B6B1C6B80B604D002019FB901D09F891C
:1001780080A62ED002019FA92BD003011D4B1E2B58
:1001880002019F9901018C5103011E5D04E10101E7
:100198008B5103011D5D1CE335C300F036C301F02C
:1001A80037C302F038C303F0000E046E000E056E6C
:1001B800000E066E7F0E076EDCEC1EF000C035F3F5
:1001C80001C036F302C037F303C038F31D6B1E6B52
:1001D80080B404D002019FB501D09F8580A42ED0A1
:1001E80002019FA52BD003011F4B202B02019F95D5
:1001F800010184510301205D04E1010183510301E0
:100208001F5D1CE32DC300F02EC301F02FC302F0C5
:1002180030C303F0000E046E000E056E000E066E6D
:100228007F0E076EDCEC1EF000C02DF301C02EF32C
:1002380002C02FF303C030F31F6B206B80B204D0D1
:1002480002019FB701D09F8780A22CD002019FA7EF
:1002580029D0F24BF32B9F97010182510201F35DE4
:1002680004E1010181510201F25D1CE347C300F082
:1002780048C301F049C302F04AC303F0000E046EFC
:10028800000E056E000E066E7F0E076EDCEC1EF08B
:1002980000C047F301C048F302C049F303C04AF362
:1002A800F26BF36B80B004D002019FBF01D09F8F27
:1002B80080A02CD002019FAF29D0F44BF52B9F9F33
:1002C800010186510201F55D04E101018551020138
:1002D800F45D1CE34BC300F04CC301F04DC302F0C6
:1002E8004EC303F0000E046E000E056E000E066E7F
:1002F8007F0E076EDCEC1EF000C04BF301C04CF320
:1003080002C04DF303C04EF3F46BF56B80BA04D012
:100318000201A0B701D0A08780AA2CD00201A0A713
:1003280029D0F64BF72BA09701018A510201F75DFE
:1003380004E1010189510201F65D1CE33FC300F0AD
:1003480040C301F041C302F042C303F0000E046E43
:10035800000E056E000E066E7F0E076EDCEC1EF0BA
:1003680000C03FF301C040F302C041F303C042F3B1
:10037800F66BF76B80B804D00201A0B901D0A08950
:1003880080A82CD00201A0A929D0EC4BED2BA09974
:10039800010188510201ED5D04E10101875102016B
:1003A800EC5D1CE343C300F044C301F045C302F015
:1003B80046C303F0000E046E000E056E000E066EB6
:1003C8007F0E076EDCEC1EF000C043F301C044F35F
:1003D80002C045F303C046F3EC6BED6B82B204D068
:1003E8000201A0B501D0A08582A22CD00201A0A54F
:1003F80029D0EE4BEF2BA0950101A1510201EF5D31
:1004080004E10101A0510201EE5D1CE329C300F0E3
:100418002AC301F02BC302F02CC303F0000E046EB4
:10042800000E056E000E066E7F0E076EDCEC1EF0E9
:1004380000C029F301C02AF302C02BF303C02CF338
:10044800EE6BEF6B82B004D00201A0B101D0A081A5
:1004580082A02CD00201A0A129D0F04BF12BA091B1
:1004680001019F510201F15D04E101019E51020168
:10047800F05D1CE325C300F026C301F027C302F09A
:1004880028C303F0000E046E000E056E000E066E03
:100498007F0E076EDCEC1EF000C025F301C026F3CA
:1004A80002C027F303C028F3F06BF16B88B804D0BF
:1004B8000201A0B301D0A08388A82CD00201A0A378
:1004C80029D0FE4BFF2BA0930101A3510201FF5D30
:1004D80004E10101A2510201FE5D1CE321C300F009
:1004E80022C301F023C302F024C303F0000E046EFC
:1004F800000E056E000E066E7F0E076EDCEC1EF019
:1005080000C021F301C022F302C023F303C024F387
:10051800FE6BFF6B88BA04D002019FB101D09F81A6
:1005280088AA2ED002019FA12BD00301014B022BD8
:1005380002019F910101A7510301025D04E101013C
:10054800A6510301015D1CE30DC300F00EC301F0C9
:100558000FC302F010C303F0000E046E000E056E08
:10056800000E066E7F0E076EDCEC1EF000C00DF369
:1005780001C00EF302C00FF303C010F3016B026B4E
:1005880088BC04D002019FB301D09F8388AC2ED0D1
:1005980002019FA32BD00301034B042B02019F935D
:1005A8000101A5510301045D04E10101A451030106
:1005B800035D1CE309C300F00AC301F00BC302F09A
:1005C8000CC303F0000E046E000E056E000E066EDE
:1005D8007F0E076EDCEC1EF000C009F301C00AF3C1
:1005E80002C00BF303C00CF3036B046B88BE04D08A
:1005F80001018DBF01D08D8F88AE2DD001018DAF47
:100608002AD00201F84BF92B01018D9F9D5102015F
:10061800F95D04E101019C510201F85D1CE305C389
:1006280000F006C301F007C302F008C303F0000E90
:10063800046E000E056E000E066E7F0E076EDCEC73
:100648001EF000C005F301C006F302C007F303C0A3
:1006580008F3F86BF96B82B404D001018DBB01D0AB
:100668008D8B82A42DD001018DAB2AD00201FA4BCB
:10067800FB2B01018D9B97510201FB5D04E10101F8
:1006880096510201FA5D1CE317C300F018C301F08C
:1006980019C302F01AC303F0000E046E000E056EB3
:1006A800000E066E7F0E076EDCEC1EF000C017F31E
:1006B80001C018F302C019F303C01AF3FA6BFB6BFD
:1006C80082BA04D001018DBD01D08D8D82AA2DD0B2
:1006D80001018DAD2AD00201FC4BFD2B01018D9D3E
:1006E80095510201FD5D04E1010194510201FC5D97
:1006F8001CE313C300F014C301F015C302F016C3C2
:1007080003F0000E046E000E056E000E066E7F0EDE
:10071800076EDCEC1EF000C013F301C014F302C036
:1007280015F303C016F3FC6BFD6BF2A208D00101B0
:100738008DA104D00201A0BF01D0A08BF29222C0EB
:1007480000F021C001F020C002F01FC003F01EC05D
:1007580004F01DC005F01CC006F01BC007F01AC04D
:1007680008F019C009F018C00AF017C00BF016C03D
:080778000CF015C00EF0110099
:0A078000050E0D6E0D2EFED71200BF
:10078A009186120E006E000E016E830E0024E16E39
:10079A000F0E0120E26EFF0EE66E9192030E831495
:0E07AA00016E0150030A01E0F9D7918212009E
:1007B800E8DF120E006E000E016E830E0024E16E5B
:1007C8000F0E0120E26EE66A1AC483FF9190D4DF0F
:0807D800D3DFD2DF9180120093
:1007E0000B6A0A6A096A00500402F4CF09F0F3CFD9
:1007F00008F001500502F4CF0BF0F3CF0AF00050DF
:100800000502F3500926F4500A22E86A0B2201502F
:100810000402F3500926F4500A22E86A0B2208C0A9
:1008200000F009C001F00AC002F00BC003F0120092
:100830009196120E006E000E016E830E0024E16E82
:100840000F0E0120E26EE66A19C483FF919098DFD3
:0808500097DF96DF9180120092
:1008580098DFC50E04011A6FABDF120E006E000E92
:10086800016E830E0024E16E0F0E0120E26EFF0E72
:10087800E66E82DF9196919291807EDF7DDF7CDF4C
:0C08880083CF19F47EDF19C400F01200C9
:10089400086A096A100E0C6E0134083609360450D1
:1008A400085E0550D8A0053C095ED8B007D00450B6
:1008B40008260550D8B0053C0926D89000360136E4
:0608C4000C2EEAD7120021
:1008CA000FC4D5F210C4D6F211C4D7F2020E040135
:1008DA000F25F66E000E1021F76E000E1121F86E2C
:1008EA000900F5CF04F0030E0F25F66E000E102155
:1008FA00F76E000E1121F86E0900F5CF03F003C060
:10090A0001F0006A045000240201C06F000E0120A9
:10091A00C16F040E04010F25F66E000E1021F76E4A
:10092A00000E1121F86E0900F5CF04F0050E0F250F
:10093A00F66E000E1021F76E000E1121F86E0900F6
:10094A00F5CF03F003C001F0006A0450002402014D
:10095A00D36F000E0120D46F060E04010F25F66E28
:10096A00000E1021F76E000E1121F86E0900F5CF66
:10097A00D8F2000E0201D96F12C4E8F2000EE96F34
:10098A0013C4D0F2010E0101626F0201BE6BBF6B8C
:02099A00120049
:10099C000201BD510401105D04E10201BC510401CE
:1009AC000F5D01E3A5D00201B7510401125D04E112
:1009BC000201B6510401115D01E39AD0800E1019A9
:1009CC00006E800E005C02E1000E0F5D01E290D023
:1009DC00800E1219006E800E005C02E1000E115D9B
:1009EC0001E286D0B8C204F0B9C205F00FC400F021
:1009FC0010C401F049DF00C017F401C018F411C491
:100A0C0000F012C401F0C2C204F0C3C205F0E2DE71
:100A1C0017510026000E01220201B4510024036E6E
:100A2C00B5510120046E04C000F0016A00C014F43A
:100A3C0003C019F4F7DE14C419F4F4DE240E040117
:100A4C001A6FB4DE04011351020A38E198DEFEDE9F
:100A5C0000C017F417C415F4B8C204F0B9C205F0FD
:100A6C000FC400F010C401F00FDF08C000F009C083
:100A7C0001F000500201B85D006E000600C001F0EC
:100A8C00010E006E015004E000360090FF0FFBD702
:100A9C0000C016F404011751001607E0161D006E75
:100AAC0000C016F40050151702D01651151315C4BA
:100ABC0019F4B8DEC40E1A6F79DE1AD0F00E0401E8
:100ACC0013111A6FB8C204F0B9C205F00FC400F0CC
:100ADC0010C401F0D9DE08C000F009C001F00050CC
:100AEC000201B85D006E0006005004011A135EDEB0
:020AFC001200E6
:100AFE00F250026EF29E0500FF6A0150FE6E00502B
:080B0E00FD6E02BEF28E120022
:100B160001C4E6F202C4E7F203C4D1F204C4D2F27D
:020B26001200BB
:100B28000401086B096B0A6B01016251000A0EE1AE
:100B3800BA0E04010F6F0A0E106F010E116F080E26
:100B4800126F136BBEDE010E0101626F000E006EA4
:100B58000201C151005C03E1C0510401005D01E2E2
:100B680007D1000E0201D45D04E104010051020125
:100B7800D35D01E2FDD0C0510401005D016EC1C228
:100B880002F0000E025601C003F002C004F0033662
:100B980003900436033603900436080E0201D52567
:100BA800006E000ED621016E000ED721026E000ED7
:100BB800056E00500326015004220250052203C08E
:100BC800F6FF04C0F7FF05C0F8FF0900F5CF08F4E9
:100BD800010E0324F66E000E0420F76E000E0520A9
:100BE800F86E0900F5CF00F000C006F0000E076EA1
:100BF800086E096E020E0324F66E000E0420F76ECE
:100C0800000E0520F86E0900F5CF03F003C001F0CF
:100C1800006A000E026E036E06500026075001227D
:100C28000850022209500322D55100240401056FFF
:100C38000201D65101200401066F0201D75102209A
:100C48000401076F0201D051000A4AE1D1C203F43E
:100C58000401026B000E006E0201D951005C03E131
:100C6800D8510401025D33E20401E6C209F4046BC1
:100C7800016B0851015D28E20451000A10E105C426
:100C8800F6FF06C4F7FF07C4F8FF0900F5CF0AF41A
:100C9800010E0527000E06230723010E046F0451D9
:100CA8000A15006E0BE009C40FF4000E106F03C4A0
:100CB80011F4000E126FE8C213F46CDE0401092B64
:100CC80004370491012BD5D7032B022BC3D704017A
:100CD8000951010F0201E66FE76B000EE72348D0C8
:100CE800E6C203F40401026B000E006E0201D95142
:100CF800005C03E1D8510401025D33E20401D1C272
:100D080009F4046B016B0851015D28E20451000AE3
:100D180010E105C4F6FF06C4F7FF07C4F8FF090091
:100D2800F5CF0AF4010E0527000E06230723010E4E
:100D3800046F04510A15006E0BE003C40FF4000E93
:100D4800106F09C411F4000E126FE8C213F422DE0A
:100D58000401090704370491012BD5D7032B022B73
:100D6800C3D7040109050201D16FD26B000ED25B13
:020D7800120067
:100D7A00DA0E04010D6F020E0E6F000E006E0651A0
:100D8A00005C02E10551000843E2E4C2E1FFE5C26A
:100D9A00E2FF01C4E6FF02C4E6FF03C4E6FF04C49F
:100DAA00E6FF05C4E6FF06C4E6FF090EE66E040E7A
:100DBA00E66EE2C200F0E3C201F09CDE00C00BF472
:100DCA0001C00CF40401076B086B0A51085D02E1CB
:100DDA000951075D11E20BC4E9FF0CC4EAFF0DC417
:100DEA00E1FF0EC4E2FFEECFE6FF0D4B0E2B0B4BDD
:100DFA000C2B074B082BE9D70951055F0A51065BF3
:100E0A00095101270A510223000E03230423B5D7EF
:020E1A001200C4
:100E1C000301EA6B050EEA5D0AE2EA51E825E16E90
:100E2C00000EE921E26E200EE66EEA2BF3D7EA51B2
:100E3C00E825E16E000EE921E26EE66AEA07EA5166
:100E4C00E825EB6F000EE921EC6F0A0E046E000E24
:100E5C00056EE6C300F0E7C301F016DD08C000F034
:100E6C0009C001F0300E0026EBC3E1FFECC3E2FF3A
:100E7C0000C0E6FF0A0E046E000E056EE6C300F01D
:100E8C00E7C301F001DD00C0E6F301C0E7F3000E9B
:100E9C00011802E1000E001801E102D0EA07CFD7D9
:020EAC00120032
:100EAE000201BD510301E85D04E10201BC510301E1
:100EBE00E75D01E31FD00201B7510301EA5D04E1D2
:100ECE000201B6510301E95D01E314D0E7C301F459
:100EDE00E8C302F4E9C303F4EAC304F415DE020125
:100EEE00BE51BF1104E0E6C300F417DE03D0E6C323
:060EFE0000F413DE1200F7
:100F04000301FB6BFC6BFD6BFE6B0201C151030122
:100F1400E75D04E10201C0510301E65D01E2EFD1A6
:100F2400E7510201D45D04E10301E6510201D35DFE
:100F340001E2E5D1C0510301E65D036E0201C15136
:100F44000301E759046E03C000F004C001F0003649
:100F540000900136003600900136080E0201CC25BF
:100F64000401016F000E0201CD210401026F000E85
:100F74000201CE210401036F000E0201CF210401FE
:100F8400046F0050012701500223000E03230423A1
:100F9400040E056F000E066FEEDEDA0E0301F96F24
:100FA400020EFA6FF9C3E9FFFAC3EAFFEECFFFF3CB
:100FB400FFC3FBF3010EF925E96E000EFA21EA6E78
:100FC400EECF04F0000E056E066E076E020EF925D4
:100FD400E96E000EFA21EA6EEECF03F003C001F0D1
:100FE400006A000E026E036E0450002605500122B2
:100FF400065002220750032200500201CC250301AF
:10100400ED6F01500201CD210301EE6F0250020188
:10101400CE210301EF6F03500201CF210301F06FD2
:10102400FFC300F00032009E0032009E0032009E9A
:10103400000E016ED8C204F0D9C205F0F0EC03F042
:1010440000C0F3F301C0F4F3070EFF15006E08E0CF
:101054000201D8510301F3270201D9510301F423FA
:10106400F3C3F7F3F4C3F8F3E4C2E1FFE5C2E2FF2C
:10107400EDC3E6FFEEC3E6FFEFC3E6FFF0C3E6FF12
:10108400F3C3E6FFF4C3E6FFF10EE66E030EE66E6D
:10109400E2C200F0E3C201F030DD00C0F9F301C0A8
:1010A400FAF30301F151ED27F251EE23000EEF2381
:1010B400F023F151F35FF251F45BF56BF66B02012F
:1010C400D051000AD8A48DD0D1C2EAF3D2C2EBF336
:1010D4000301E96B000E006E0201D951005C03E1CB
:1010E400D8510301E95DD8B071D00301E6C2FCF325
:1010F400E7C2FDF3EC6BE86BFB51E85D63E2EC5196
:10110400000A49E1F54BF62BF851F25D02E1F75183
:10111400F15D37E2F651F25D02E1F551F15D31E244
:10112400010EF56F000EF66FE4C2E1FFE5C2E2FFC7
:10113400EDC3E6FFEEC3E6FFEFC3E6FFF0C3E6FF51
:10114400F3C3E6FFF4C3E6FFF10EE66E030EE66EAC
:10115400E2C200F0E3C201F0D0DC00C0F9F301C048
:10116400FAF3F3C3F7F3F4C3F8F30301F151ED27F2
:10117400F251EE23000EEF23F023F151F35FF2510D
:10118400F45BF9C3E9FFFAC3EAFFEECFFEF3F94BD0
:10119400FA2B010EEC6FEC51FE15006E0CE0FCC353
:1011A4000FF4FDC310F4EAC311F4EBC312F4E8C264
:1011B40013F4CEEC04F00301FC4BFD2BEC37EC9163
:1011C400E82B9AD7EA4BEB2BE92B84D70301010ECA
:1011D400FC250201E66F000E0301FD210201E76F09
:1011E4008ED0E6C2EAF3E7C2EBF30301E96B000E2B
:1011F400006E0201D951005C03E1D8510301E95D9D
:10120400D8B073D00301D1C2FCF3D2C2FDF3EC6BAE
:10121400E86BFB51E85D65E2EC51000A49E1F54BEE
:10122400F62BF851F25D02E1F751F15D37E2F65128
:10123400F25D02E1F551F15D31E2010EF56F000E50
:10124400F66FE4C2E1FFE5C2E2FFEDC3E6FFEEC3E1
:10125400E6FFEFC3E6FFF0C3E6FFF3C3E6FFF4C324
:10126400E6FFF10EE66E030EE66EE2C200F0E3C2A4
:1012740001F043DC00C0F9F301C0FAF3F3C3F7F360
:10128400F4C3F8F30301F151ED27F251EE23000EFC
:10129400EF23F023F151F35FF251F45BF9C3E9FF5B
:1012A400FAC3EAFFEECFFEF3F94BFA2B010EEC6F13
:1012B400EC51FE15006E0CE0EAC30FF4EBC310F41E
:1012C400FCC311F4FDC312F4E8C213F4CEEC04F031
:1012D400010E0301FC5F000EFD5BEC37EC91E82B83
:1012E40098D7EA4BEB2BE92B82D70301010EFC5D67
:1012F4000201D16F000E0301FD590201D26F1200E9
:10130400C7B409D01F0EC514016E0150000A03E1D1
:0A131400010E006E01D0006A120005
:10131E00D4C3D6F3D1C3F6FFD2C3F7FFD3C3F8FFBE
:10132E000900F5CF00F0005224E0D1C3F6FFD2C37E
:10133E00F7FFD3C3F8FF0900F5CFE6F3D6C3E7F303
:10134E00000E0301E86FD5C3E9F3000EEA6FA8DDC6
:10135E00010E0301D127000ED223D323080ED62768
:10136E00350E0D6E0D2EFED7F00ED65D01E301D0BB
:04137E00D1D71200B1
:101382000201BD510301D45D04E10201BC5103011C
:10139200D35D01E344D00201B7510301D65D04E1FC
:1013A2000201B6510301D55D01E339D0D76BD86B89
:1013B200D3C301F4D4C302F4D5C303F4D6C304F4F3
:1013C2008BEC05F0D751D125E96ED851D221EA6EC6
:1013D200EE5225E00201BE51BF1112E00301D751C6
:1013E200D125E96ED851D221EA6EEECFE6F3000E96
:1013F200E76F000EE76F85DD0301D74BD82B0ED0C8
:101402000301D751D125E96ED851D221EA6EEECF30
:1014120000F494EC05F00301D74BD82BD3D712007C
:101422000134083609360450085E0550D8A0053C40
:10143200095E003601360F0E0C6E0134083609368D
:10144200045000A006D0085E0550D8A0053C095EF5
:1014520005D008260550D8B0053C092600360136CD
:101462000C2EEBD700B006D0045008260550D8B099
:08147200053C092600001200F0
:10147A000301D36BD46BD1C303F0D2C304F0D1C33D
:10148A0005F0D2C306F003C0E9FF04C0EAFFEE503C
:10149A00200A04E1D351D41101E110D0010ED36F17
:1014AA00000ED46F03C0E9FF04C0EAFF05C0E1FFE4
:1014BA0006C0E2FFEECFE6FF054A062A03C001F0A6
:1014CA0004C002F0034A042A01C0E9FF02C0EAFF8D
:1014DA00EE50000AD8E1D1C300F0D2C301F01200E5
:0E14EA00026A016A006A086A036A000E1200B4
:0814F8000AAE029E000E120074
:101500000B840BAE8BEF0AF0010E036E026A016AC8
:0A151000006A0A360232FF0E1200D4
:10151A000301D351D75D016ED451D859026E01C06F
:10152A00DEF302C0DFF3D151D55DE06FD251D65957
:10153A00E16F800E0218006E800E005C02E1000E60
:10154A00015C0BE2DE510008DE6FDF51000EDF574F
:10155A00FF0EE46FFF0EE56F04D0010EE46F000E7C
:10156A00E56F800EE119006E800E005C02E1000E4C
:10157A00E05D0BE2E0510008E06FE151000EE15737
:10158A00FF0EE26FFF0EE36F04D0010EE26F000E52
:10159A00E36FDE37DE91DF37E037E091E137D1C321
:1015AA000FF4D2C310F4D3C311F4D4C312F4D9C3C1
:1015BA0013F4CEEC04F0800E0301DF19006E800EE6
:1015CA00E119005C02E1E051DE5D43E2E0C300F0B4
:1015DA00E1C301F001320032019E01BC018E0050CC
:1015EA00DE5DDA6F0150DF59DB6F0301D251D61984
:1015FA0002E1D551D1192CE0800EDB19006E800E64
:10160A00005C02E1000EDA5D08E3E451D327E551FC
:10161A00D423E051DA5FE151DB5BE251D125006E60
:10162A00E351D221016E00C0D1F301C0D2F3DE51E1
:10163A00DA27DF51DB2300C00FF401C010F4D3C353
:10164A0011F4D4C312F4D9C313F4CEEC04F0CDD7F9
:10165A0043D0DEC300F0DFC301F001320032019E45
:10166A0001BC018E00500301E05DDC6F0150E159BD
:10167A00DD6F0301D451D81902E1D751D3192CE0F7
:10168A00800EDD19006E800E005C02E1000EDC5D4A
:10169A0008E3E251D127E351D223DE51DC5FDF5167
:1016AA00DD5BE451D325006EE551D421016E00C003
:1016BA00D3F301C0D4F3E051DC27E151DD23D1C3D8
:1016CA000FF4D2C310F400C011F401C012F4D9C34C
:0A16DA0013F4CEEC04F0CDD712009B
:1016E4000301D16BD16B100ED15D0BE24F0EE16E95
:1016F400030EE26ED151E126D8B0E22AE66AD12B7C
:04170400F2D7120006
:101708006EC0D3F36FC0D4F370C0D5F371C0D6F3F5
:101718000301D16BD26BD251120802E1D1518E086C
:1017280008E3ECDD005201E004D00301D14BD22BD9
:10173800F2D70301120ED25D02E18F0ED15D03E3F1
:101748007B0E006E27D0C580C5A023D000016E5146
:101758006F11701171111CE00301D351D411D5110F
:10176800D6110FE1A4C2E1FFA5C2E2FF050EE66EA5
:10177800A2C200F0A3C201F07FEC05F0010E006EDA
:1017880009D0010E0301D35F000ED45BD55BD65B95
:06179800DBD7006A12001D
:10179E009E96D1C3C9FF6EC0D2F36FC0D3F370C093
:1017AE00D4F371C0D5F3C7A423D000016E516F11CD
:1017BE00701171111CE00301D251D311D411D51146
:1017CE000FE1A4C2E1FFA5C2E2FF040EE66EA2C2C3
:1017DE0000F0A3C201F07FEC05F0010E006E3CD0CC
:1017EE00010E0301D25F000ED35BD45BD55BDBD75A
:1017FE006EC0D2F36FC0D3F370C0D4F371C0D5F303
:10180E009EB623D000016E516F11701171111CE044
:10181E000301D251D311D411D5110FE1A4C2E1FFAE
:10182E00A5C2E2FF040EE66EA2C200F0A3C201F052
:10183E007FEC05F0010E006E0FD0010E0301D25F9A
:10184E00000ED35BD45BD55BDBD7C5BC02D0006A80
:0A185E0003D0C584020E006E1200D4
:04186800C584120021
:10186C000301D76BD86BD1C3D9F3D2C3DAF3800E93
:10187C00D219006E800E005C02E1000ED15D0BE20D
:10188C00010ED76F000ED86FD1510008D96FD2C39B
:10189C00DAF3000EDA57D9C3E6F3DAC3E7F3D3C3AE
:1018AC00E8F3D4C3E9F30EEC07F0060ED56F000E87
:1018BC00D66F000E006ED651005C02E1D5510008C7
:1018CC0019E2D551D325E16ED651D421E26E010E29
:1018DC00D55D006E000ED659016E0050D325E96E11
:1018EC000150D421EA6EEECFE6FF010ED55F000E5B
:1018FC00D65BDFD7D3C3E1FFD4C3E2FF200EE66E85
:10190C00D751D8111AE0D56BD66BD551D325E96ECA
:10191C00D651D421EA6EEE50200A03E1D54BD62BDA
:10192C00F4D7010ED55F000ED65BD551D325E16EF1
:0C193C00D651D421E26E2D0EE66E120092
:101948006EC0D1F36FC0D2F370C0D3F371C0D4F3BB
:10195800C582C5A221D000016E516F11701171119D
:101968001AE00301D151D211D311D4110DE1A4C24F
:10197800E1FFA5C2E2FF060EE66EA2C200F0A3C216
:1019880001F07FEC05F008D0010E0301D15F000ED5
:0A199800D25BD35BD45BDDD71200F5
:1019A2006EC0D3F36FC0D4F370C0D5F371C0D6F359
:1019B2009E96C5869EB621D000016E516F117011A0
:1019C20071111AE00301D351D411D511D6110DE1D1
:1019D200A4C2E1FFA5C2E2FF030EE66EA2C200F0BE
:1019E200A3C201F07FEC05F008D0010E0301D35F22
:1019F200000ED45BD55BD65BDDD70301C9CFD2F332
:101A0200D151000A02E1C58A01D0C59A9E96C588C5
:101A12006EC0D3F36FC0D4F370C0D5F371C0D6F3E8
:101A22009EB621D000016E516F11701171111AE032
:101A32000301D351D411D511D6110DE1A4C2E1FF96
:101A4200A5C2E2FF030EE66EA2C200F0A3C201F03D
:101A52007FEC05F008D0010E0301D35F000ED45BCA
:0C1A6200D55BD65BDDD7D2C300F01200CC
:101A6E007F9CC9C363FFC8C362FF7F9E7F8061CF27
:081A7E0001F001C000F01200AC
:101A8600C9C300F0016A00C0CBF3C8C319F418EC4F
:101A960004F0CBC319F418EC04F0CAC31AF4DCEC56
:041AA60003F0120037
:101AAA000C6A0E6A0250D8A46EEF0DF001C002F063
:101ABA0000C001F0006A0E860250D8A46EEF0DF045
:101ACA0001C002F0016A0E960E880250D8B480EF67
:101ADA000DF00E50035ED8A4D8A085EF0DF0D89073
:101AEA0002BE8AEF0DF0003601360236032E75EF7C
:101AFA000DF085EF0DF0010E0C6EF2DC8DEF0DF09E
:101B0A00020E0C6EF8DC8DEF0DF0040E0C6EEFDC9D
:021B1A001200B7
:101B1C000B820BAE98EF0DF0036802680168006849
:081B2C000A360232FF0E12001E
:101B3400E9DDAE0E0301D16F30DEC9C300F0016AE6
:101B440000C0D1F32ADEC8C3D1F327DEFBDEAF0E1B
:101B54000301D16F22DE0301D16B21DF00C0CAF380
:101B640082EC09F0005202E10000FAD77BDED00ECD
:101B74000C6EC90E0D6E0D2EFED70C2EFCD7000078
:0C1B84000000CAC300F0000E016E120049
:101B90000450000A08E10550000A05E1FF0E006E3E
:101BA0007F0E016E57D00D6A096A086A0150001055
:101BB000D8B4000C015005180A6E0ABE0D1E0B6A3F
:101BC00005AE05D0041E051E042AD8B4052A01AEB0
:101BD00005D0001E011E002AD8B4012A01500510AC
:101BE0000A6E0ABE10D01DDC0BB020D00DAE000C6A
:101BF000001E011E002AD8B4012A081E091E082A48
:101C0000D8B4092A000C05AE0DD001BE07D0015092
:101C1000096E0050086E016A006AE8D7016A006A1E
:101C2000002A000C011E001E0B2ADDD7082AD8B49A
:101C3000092A0450085CD8A4D9D70550095CD8A457
:101C4000D5D7096A086A002AD8B4012A01AECED7CE
:061C50000000FF0C120071
:101C5600C8C3D1F3000E0301D26F4F0ED36F030E2C
:101C6600D46F01DE4F0ED16F030ED26F03DC0A0E66
:101C7600C85D1EE2E10ED16F1D0ED26F010ED36F4D
:101C8600C9C3D4F3CAC3D5F38FEC09F04F0E0301D1
:101C9600D16F030ED26F080EC925D36FD46B000E19
:101CA600D423CAC3D5F3000ED66FC1EC09F011D008
:101CB6000A0EC85D0EE34F0ED16F030ED26FC9C375
:101CC600D3F3000ED46FCAC3D5F3000ED66FC1ECA2
:061CD60009F005DD12001B
:101CDC00086A080E0C6E003408360450085ED8B042
:0E1CEC0002D00826D89000360C2EF5D7120034
:101CFA00800E0301CD19006E800EC919005C02E145
:101D0A00C851CC5D18E3C8C3D1F3C9C3D2F3CAC35F
:101D1A00D3F3CBC3D4F3C8C3D5F3C9C3D6F3CEC365
:101D2A00D7F3CFC3D8F3D0C3D9F38DEC0AF00301AC
:081D3A00C84BC92BDDD71200D4
:101D42007FA202D00000FCD77F9CBEC363FFBDC34D
:101D520062FFBFC361FF7F9E7F84F2CF00F0F29EDD
:101D6200550E7E6EAA0E7E6E7F8200BE02D0F29E5D
:081D720001D0F28E7F941200F3
:101D7A000301C16BBDC3C8F3BEC3C9F3D6DE00C03D
:101D8A00C1F3010E0301BD25C86F000EBE21C96F44
:101D9A00CCDEC1C3BFF3000E0301C06FBFC303F0A3
:101DAA00026A000E0216FF0E031602C0BFF303C03A
:101DBA00C0F3000E016E025000260350012200C03B
:101DCA00BFF301C0C0F306D00D2EFED70C2EFCD7F0
:061DDA00000000001200F1
:101DE000510E0301C06F000EC16F680EC26F000E6E
:101DF000C36FA00EC46F000EC56F5A0EC66F000EE3
:101E0000C76FC051C45D006EC151C559016EBDC3DD
:101E100004F0000E056EF0EC03F0640E046E000E8C
:101E2000056EB6DE00500301C025BE6F0150C12112
:101E3000BF6F6C0EC86F000EC96F480ECA6F000EE0
:101E4000CB6F840ECC6F000ECD6F500ECE6F000E98
:101E5000CF6FD06B52DFBDC3C8F36C0EC96F480E95
:101E6000CA6FF9DEDD0ED16F1D0ED26F010ED36F7A
:101E70007B0ED46F480ED56F8FEC09F0D00E0C6E30
:101E8000C90E0D6E0D2EFED70C2EFCD700000000E3
:101E9000C0C3C8F3C1C3C9F3C2C3CAF3C3C3CBF33E
:101EA000BEC3CCF3BFC3CDF3C6C3CEF3C7C3CFF31A
:0A1EB000080E0301D06F21DF1200BD
:101EBA0026DCAE0E0301D16F6DDCBEC300F0016AF1
:101ECA0000C0D1F367DCBDC3D1F364DCBFC3D1F377
:101EDA0061DCC5DCD00E0C6EC90E0D6E0D2EFED760
:0A1EEA000C2EFCD7000000001200CF
:101EF4000050086E0150006E016A026A036A0B6AA0
:101F04000C6A960E036E0A6A00C001F008C000F065
:081F1400086A026AC8DD120030
:101F1C000B800BAE9AEF0FF0026A0AAEFF0E026E48
:0C1F2C00016E006E0A360232FF0E120039
:101F3800BDC300F00032009E0032009E0032009EB9
:101F48000032009E0A0E0002F3CF01F00F0E0301CB
:0A1F5800BD15006E015000261200B6
:101F62000301BF6BC06BC16BC26BBDC3C8F3BEC301
:101F7200C9F37CDD00C0C1F3000EC26F010EBD25A6
:101F8200C86F000EBE21C96F71DD00C0BFF3000E25
:101F9200C06F680E0C6EE40E0D6E0D2EFED70C2E69
:101FA200FCD70000C1C301F0006A000E0014026EEB
:101FB2000150FF0B036EFF0EBF15006EC0C301F090
:0E1FC200000E01160250001203500112120010
:101FD000BDC3D1F3BEC3D2F3BFC3D3F3C0C3D4F3E5
:101FE000C1C3D5F3C2C3D6F3BFC3D7F3C0C3D8F3BD
:101FF000C5C3D9F38DEC0AF0C1C3D1F3C2C3D2F388
:10200000BFC3D3F3C0C3D4F3C1C3D5F3C2C3D6F3A4
:10201000C3C3D7F3C4C3D8F3C5C3D9F38DEC0AF057
:10202000C1C3D1F3C2C3D2F3C3C3D3F3C4C3D4F384
:10203000BDC3D5F3BEC3D6F3C3C3D7F3C4C3D8F36C
:10204000C5C3D9F38DEC0AF0BDC3D1F3BEC3D2F33F
:10205000C3C3D3F3C4C3D4F3BDC3D5F3BEC3D6F354
:10206000BFC3D7F3C0C3D8F3C5C3D9F38DEC0AF00F
:0220700012005C
:102072000301C26BC36BC5EC03F00301BE51020145
:10208200B4250301C86FBF510201B5210301C96F15
:10209200240ECA6FF7DCB00E04011A6FDCEC03F0F9
:1020A2009196120E006E000E016E830E0024E16EF8
:1020B2000F0E0120E26EE66A0301C151C35D02E127
:1020C200C051C25D0FE2BDC383FF9190C0EC03F02B
:1020D200C0EC03F0C0EC03F0C0EC03F09180C24B03
:1020E200C32BEAD7B20E04011A6FDCEC03F0120024
:1020F2000B6A0A6A096A086A0E6A033408360450CF
:10210200085E0550D8A0053C095E0650D8A0063CE2
:102112000A5E0750D8A0073C0B5EE86AD8A0010E01
:102122000E5E0336070E0C6E0334083609360A3685
:102132000B360E36045003A012D0085E0550D8A00C
:10214200053C095E0650D8A0063C0A5E0750D8A09E
:10215200073C0B5EE86AD8A0010E0E5E11D008267D
:102162000550D8B0053C09260650D8B0063C0A26D0
:102172000750D8B0073C0B26E86AD8B0010E0E26ED
:1021820003360C2ED1D70234083609360A360B36FE
:102192000E36045003A012D0085E0550D8A0053CAC
:1021A200095E0650D8A0063C0A5E0750D8A0073C3C
:1021B2000B5EE86AD8A0010E0E5E11D0082605500B
:1021C200D8B0053C09260650D8B0063C0A2607506E
:1021D200D8B0073C0B26E86AD8B0010E0E260236AC
:1021E200070E0C6E0234083609360A360B360E36E6
:1021F200045002A012D0085E0550D8A0053C095E2A
:102202000650D8A0063C0A5E0750D8A0073C0B5ED9
:10221200E86AD8A0010E0E5E11D008260550D8B08B
:10222200053C09260650D8B0063C0A260750D8B00D
:10223200073C0B26E86AD8B0010E0E2602360C2E99
:10224200D1D70134083609360A360B360E36045019
:1022520002A012D0085E0550D8A0053C095E0650C7
:10226200D8A0063C0A5E0750D8A0073C0B5EE86A7D
:10227200D8A0010E0E5E11D008260550D8B0053C3C
:1022820009260650D8B0063C0A260750D8B0073CAB
:102292000B26E86AD8B0010E0E260136070E0C6E28
:1022A2000134083609360A360B360E36045001A0C0
:1022B20012D0085E0550D8A0053C095E0650D8A091
:1022C200063C0A5E0750D8A0073C0B5EE86AD8A01D
:1022D200010E0E5E11D008260550D8B0053C092625
:1022E2000650D8B0063C0A260750D8B0073C0B2649
:1022F200E86AD8B0010E0E2601360C2ED1D7003472
:10230200083609360A360B360E36045001A012D0B2
:10231200085E0550D8A0053C095E0650D8A0063CD0
:102322000A5E0750D8A0073C0B5EE86AD8A0010EEF
:102332000E5E11D008260550D8B0053C092606507D
:10234200D8B0063C0A260750D8B0073C0B26E86AEC
:10235200D8B0010E0E260036070E0C6E0034083679
:1023620009360A360B360E36045000A012D0085E2B
:102372000550D8A0053C095E0650D8A0063C0A5E6E
:102382000750D8A0073C0B5EE86AD8A0010E0E5E8B
:1023920011D008260550D8B0053C09260650D8B001
:1023A200063C0A260750D8B0073C0B26E86AD8B08C
:1023B200010E0E2600360C2ED1D700B00ED00450DE
:1023C20008260550D8B0053C09260650D8B0063C70
:0C23D2000A260750D8B0073C0B2612006A
:1023DE00C5EC03F0BDC319F418EC04F0BEC319F438
:1023EE0018EC04F0210E04011A6FDCEC03F012005D
:1023FE000301BE6BBD5109081BE20A0E046EBDC37C
:10240E0000F065DC00C0BEF300C0BEF3BE37BE9167
:10241E00BE37BE91BE37BE91BE37BE910A0E046E58
:10242E00BDC300F054DC08C000F00050BE1302D053
:0A243E00BDC3BEF3BEC300F01200E0
:102448000450085E0550D8A0053C095E0650D8A087
:10245800063C0A5E0750D8A0073C0B5E0336070E01
:102468000C6E0334083609360A360B36045003A0BE
:102478000ED0085E0550D8A0053C095E0650D8A0CD
:10248800063C0A5E0750D8A0073C0B5E0DD0082614
:102498000550D8B0053C09260650D8B0063C0A2697
:1024A8000750D8B0073C0B2603360C2EDAD7023477
:1024B800083609360A360B36045003A00ED0085EDB
:1024C8000550D8A0053C095E0650D8A0063C0A5E17
:1024D8000750D8A0073C0B5E0DD008260550D8B091
:1024E800053C09260650D8B0063C0A260750D8B045
:1024F800073C0B260236070E0C6E023408360936E6
:102508000A360B36045002A00ED0085E0550D8A03B
:10251800053C095E0650D8A0063C0A5E0750D8A0C4
:10252800073C0B5E0DD008260550D8B0053C09269F
:102538000650D8B0063C0A260750D8B0073C0B26F0
:1025480002360C2EDAD70134083609360A360B362D
:10255800045002A00ED0085E0550D8A0053C095EC4
:102568000650D8A0063C0A5E0750D8A0073C0B5E70
:102578000DD008260550D8B0053C09260650D8B01D
:10258800063C0A260750D8B0073C0B260136070E32
:102598000C6E0134083609360A360B36045001A091
:1025A8000ED0085E0550D8A0053C095E0650D8A09C
:1025B800063C0A5E0750D8A0073C0B5E0DD00826E3
:1025C8000550D8B0053C09260650D8B0063C0A2666
:1025D8000750D8B0073C0B2601360C2EDAD700344A
:1025E800083609360A360B36045001A00ED0085EAC
:1025F8000550D8A0053C095E0650D8A0063C0A5EE6
:102608000750D8A0073C0B5E0DD008260550D8B05F
:10261800053C09260650D8B0063C0A260750D8B013
:10262800073C0B260036070E0C6E003408360936B8
:102638000A360B36045000A00ED0085E0550D8A00C
:10264800053C095E0650D8A0063C0A5E0750D8A093
:10265800073C0B5E0DD008260550D8B0053C09266E
:102668000650D8B0063C0A260750D8B0073C0B26BF
:1026780000360C2EDAD700B00ED0045008260550CC
:10268800D8B0053C09260650D8B0063C0A260750A3
:08269800D8B0073C0B2612002C
:1026A0000B1E0A1E091E081E082AD8B4092AD8B40F
:0826B0000A2AD8B40B2A12001B
:1026B8000CB09EEF13F00CA246EF14F00E6A000E59
:1026C8000264B5EF13F0F00E0214D8A480EF13F0F3
:1026D800023A01380F0B02260138F00B016E003860
:1026E8000F0B01260038F00B006E08380F0B002680
:1026F8000838F00B086E0E84D89002BE99EF13F0DC
:1027080008360036013602360E2A02BE99EF13F05B
:1027180008360036013602360E2A02BE99EF13F04B
:1027280008360036013602360E2A0E5003643AEF98
:1027380014F0035E0BBC08AE40EF14F0D880800E96
:1027480008640030000E002201220222D8A040EFC7
:1027580014F0023201320032034A46EF14F040EF1F
:1027680014F001C002F000C001F008C000F0086ACF
:10277800000E0E860264ECEF13F0F00E0214D8A4DB
:10278800D4EF13F0023A01380F0B02260138F00B90
:10279800016E00380F0B01260038F00B006E0E8416
:1027A800D89002BE99EF13F00036013602360E2A91
:1027B80002BE99EF13F00036013602360E2A02BE29
:1027C80099EF13F00036013602360E2A99EF13F00E
:1027D80001C002F000C001F0006A000E0E960E88DB
:1027E800026419EF14F0F00E0214D8A404EF14F0E8
:1027F800023A01380F0B02260138F00B016E0E84E5
:10280800D89002BE99EF13F0013602360E2A02BEA6
:1028180099EF13F0013602360E2A02BE99EF13F033
:10282800013602360E2A99EF13F001C002F0016A50
:10283800000E0E8602644CEF14F0F00E0214D8A4B9
:1028480028EF14F0023A0E84D89002BE99EF13F0E4
:1028580002360E2A02BE99EF13F002360E2A02BE85
:1028680099EF13F002360E2A99EF13F0010E0C6E51
:1028780080EC0AF050EF14F0020E0C6E7CEC0AF0BB
:1028880050EF14F0040E0C6E8EEC0DF050EF14F0B7
:0A289800080E0C6E75EC0AF0120039
:0828A2000B6A0B86FF0E120009
:1028AA00200E0301BD6F000EBE6FB1EC0FF07AEC83
:1028BA000FF000C039F301C03AF302C03BF303C082
:1028CA003CF3680E0C6EE40E0D6E0D2EFED70C2E28
:1028DA00FCD70000220EBD6F000EBE6FB1EC0FF0E8
:1028EA007AEC0FF000C031F301C032F302C033F3C7
:1028FA0003C034F3680E0C6EE40E0D6E0D2EFED777
:10290A000C2EFCD70000240EBD6F000EBE6FB1EC7A
:10291A000FF07AEC0FF000C035F301C036F302C0B5
:10292A0037F303C038F3680E0C6EE40E0D6E0D2EED
:10293A00FED70C2EFCD70000260EBD6F000EBE6F10
:10294A00B1EC0FF07AEC0FF000C02DF301C02EF3BA
:10295A0002C02FF303C030F3680E0C6EE40E0D6E46
:10296A000D2EFED70C2EFCD70000280EBD6F000ED0
:10297A00BE6FB1EC0FF07AEC0FF000C047F301C064
:10298A0048F302C049F303C04AF3680E0C6EE40E22
:10299A000D6E0D2EFED70C2EFCD700002A0EBD6F31
:1029AA00000EBE6FB1EC0FF07AEC0FF000C04BF3E3
:1029BA0001C04CF302C04DF303C04EF3680E0C6E17
:1029CA00E40E0D6E0D2EFED70C2EFCD700002C0E39
:1029DA00BD6F000EBE6FB1EC0FF07AEC0FF000C0C5
:1029EA003FF301C040F302C041F303C042F3680E53
:1029FA000C6EE40E0D6E0D2EFED70C2EFCD70000C9
:102A0A002E0EBD6F000EBE6FB1EC0FF07AEC0FF018
:102A1A0000C043F301C044F302C045F303C046F3C8
:102A2A00680E0C6EE40E0D6E0D2EFED70C2EFCD722
:102A3A000000300EBD6F000EBE6FB1EC0FF07AECE5
:102A4A000FF000C029F301C02AF302C02BF303C020
:102A5A002CF3680E0C6EE40E0D6E0D2EFED70C2EA6
:102A6A00FCD70000320EBD6F000EBE6FB1EC0FF046
:102A7A007AEC0FF000C025F301C026F302C027F359
:102A8A0003C028F3680E0C6EE40E0D6E0D2EFED7F1
:102A9A000C2EFCD70000340EBD6F000EBE6FB1ECD9
:102AAA000FF07AEC0FF000C021F301C022F302C04C
:102ABA0023F303C024F3680E0C6EE40E0D6E0D2E84
:102ACA00FED70C2EFCD70000360EBD6F000EBE6F6F
:102ADA00B1EC0FF07AEC0FF000C00DF301C00EF369
:102AEA0002C00FF303C010F3680E0C6EE40E0D6EF5
:102AFA000D2EFED70C2EFCD70000380EBD6F000E2F
:102B0A00BE6FB1EC0FF07AEC0FF000C009F301C010
:102B1A000AF302C00BF303C00CF3680E0C6EE40E4A
:102B2A000D6E0D2EFED70C2EFCD700003A0EBD6F8F
:102B3A00000EBE6FB1EC0FF07AEC0FF000C005F397
:102B4A0001C006F302C007F303C008F3680E0C6E57
:102B5A00E40E0D6E0D2EFED70C2EFCD700003C0E97
:102B6A00BD6F000EBE6FB1EC0FF07AEC0FF000C033
:102B7A0017F301C018F302C019F303C01AF3680E61
:102B8A000C6EE40E0D6E0D2EFED70C2EFCD7000037
:102B9A003E0EBD6F000EBE6FB1EC0FF07AEC0FF077
:102BAA0000C013F301C014F302C015F303C016F3F7
:102BBA00680E0C6EE40E0D6E0D2EFED70C2EFCD791
:102BCA000000BD6BBE6BBF6B0201C651BA25030183
:102BDA00C06F0201C751BB210301C16F39EC10F06C
:102BEA004E0E0301D16F1A0ED26F010ED36F500E23
:102BFA00D46F300ED56F8FEC09F0070E0301D16F39
:102C0A001D0ED26F010ED36F600ED46F400ED56FBA
:102C1A008FEC09F0CB0E0B6EEC0E0C6E840E0D6E63
:102C2A000D2EFED70C2EFCD70B2EFAD70000120061
:102C3A0084EC0BF0D00E0301D16FCFEC0BF0B3C3D1
:102C4A00D1F3CFEC0BF084EC0BF0D10E0301D16F72
:102C5A00CFEC0BF00301D16BD1EC0CF000C0B4F354
:102C6A0082EC09F0005202E10000FAD734EC0CF0D1
:102C7A00D00E0C6EC90E0D6E0D2EFED70C2EFCD783
:102C8A0000000000B4C3BDF39CEC0FF006D00D2E7B
:0C2C9A00FED70C2EFCD70000000012003A
:102CA6000301B36BB46BB56BB66BB76BB86BBD6B2F
:102CB600BE6BBF6B0201C651BA250301C06F02018C
:102CC600C751BB210301C16F39EC10F0DE0E0301C1
:102CD600D16F190ED26F010ED36F3C0ED46F3C0E1E
:102CE600D56F8FEC09F0500E0301BD6F000EBE6F5D
:102CF600680EBF6F000EC06FA00EC16F000EC26FD0
:102D06005A0EC36F000EC46F080EC56FE8EC0FF0C5
:102D16000301B36BB46B000EB45D02E1100EB35D3C
:102D260051E2B3C300F0B4C301F0600E046E000EAE
:102D3600056EF0EC03F000C0B5F301C0B6F300C0B9
:102D4600B7F301C0B8F3600EB525016E000EB621CB
:102D5600026E0250B85D02E10150B75D2FE2320EFD
:102D6600B325BD6FF0EC0EF0B7C300F0B8C301F0A9
:102D7600003600900136100E0024BD6F000E0120B3
:102D8600BE6FBDEC0EF000C023F001C024F0D00EE3
:102D96000C6EC90E0D6E0D2EFED70C2EFCD7000044
:102DA6000000000E241802E12350000A03E001018E
:102DB6008D8704D00301B74BB82BC5D70301B34B9E
:102DC600B42BA9D7B36BB46B000EB45D02E1100E41
:102DD600B35D2FE2540EB325BD6FF0EC0EF0B3C316
:102DE60000F0B4C301F0003600900136200E002436
:102DF600BD6F000E0120BE6FB1EC0FF000C023F0D6
:102E060001C024F0D00E0C6EC90E0D6E0D2EFED72D
:102E16000C2EFCD700000000000E241802E12350FF
:102E2600000A03E001018D8704D00301B34BB42BE4
:102E3600CBD701018DA704D08DB902D08D8905D0DD
:0C2E46008DA703D08DA901D08D9912003A
:102E520084EC0BF0D00E0301D16FCFEC0BF0B3C3B7
:102E6200D1F3CFEC0BF0B4C3BDF3FFEC11F000C013
:102E7200D1F3CFEC0BF034EC0CF0D00E0C6EC90E8B
:102E82000D6E0D2EFED70C2EFCD700000000120096
:102E9200086A096A000E07620364CEEF17F0025057
:102EA20006180A6E075003267E0ED8A05FEF17F0B1
:102EB200035ED8B0D3EF17F063EF17F0035ED8A02C
:102EC200D8EF17F0028E068E02C00EF001C00BF092
:102ED20000C00DF000500402F4CF0CF001500502C6
:102EE200F4CF00F0F3CF08F00402F3500C26F450B4
:102EF2000822000E00220D500502F3500C26F45059
:102F02000822000E002202500402F3500826F45058
:102F1200002202500502016A000E0122F35000262F
:102F2200F45001220D500602F3500826F4500022FC
:102F3200026A000E012202220B500602F350002602
:102F4200F4500122000E02220E500602F350012616
:102F5200F450022202BEB6EF17F0083600360136F0
:102F620002360306D8B4D8EF17F0C9EF17F0D880AD
:102F7200800E08640030000E002201220222D8A036
:102F8200C9EF17F0023201320032034AD3EF17F0D1
:102F92000AAE029E000EDBEF17F0010E75EC0AF08E
:102FA200DBEF17F0020E8EEC0DF0DBEF17F0040EE4
:062FB20080EC0AF01200A1
:102FB8000301B96BBA6B000EBA5D02E10A0EB95D86
:102FC8000BE2B951B725E16EBA51B821E26E200E75
:102FD800E66EB94BBA2BEFD7B951B725E16EBA51A6
:102FE800B821E26EE66A010EB95F000EBA5BB9510C
:102FF800B725BB6FBA51B821BC6F0A0E046E000E1C
:10300800056E066E076EB3C300F0B4C301F0B5C316
:1030180002F0B6C303F079EC10F008C000F009C064
:1030280001F00AC002F00BC003F0300E0026BBC34B
:10303800E1FFBCC3E2FF00C0E6FF0A0E046E000E0B
:10304800056E066E076EB3C300F0B4C301F0B5C3D6
:1030580002F0B6C303F079EC10F000C0B3F301C07E
:10306800B4F302C0B5F303C0B6F3000E046E031840
:1030780008E10450021805E10450011802E100506B
:10308800000A01E105D0010EB95F000EBA5BAFD7A7
:02309800120024
:10309A000450000A12E10550000A0FE10650000A26
:1030AA000CE10750000A09E1FF0E006EFF0E016EE7
:1030BA00FF0E026E7F0E036E99D00C6A07BE0C2AB1
:1030CA000D6A0B6A0A6A096A086A0350021001103B
:1030DA000010D8B485D0035007180E6E0EBE0D1E10
:1030EA0007AE0BD0041E051E061E071E042AD8B4FE
:1030FA00052AD8B4062AD8B4072A03AE0BD0001E74
:10310A00011E021E031E002AD8B4012AD8B4022ABC
:10311A00D8B4032A035007100E6E0EBE1DD024EC3D
:10312A0012F00CBE36D00DAE5BD0001E011E021E80
:10313A00031E002AD8B4012AD8B4022AD8B4032A12
:10314A00081E091E0A1E0B1E082AD8B4092AD8B45A
:10315A000A2AD8B40B2A44D007AE15D003BE0DD024
:10316A0003500B6E02500A6E0150096E0050086E31
:10317A00036A026A016A006AD6D7036A026A016AA6
:10318A00006A002A000C031E021E011E001E0C8E7D
:10319A00C6D7082AD8B4092AD8B40A2AD8B40B2A16
:1031AA000450085CD8A4BFD70550095CD8A4BBD783
:1031BA0006500A5CD8A4B7D707500B5CD8A4B3D77B
:1031CA000B6A0A6A096A086A002AD8B4012AD8B4BA
:1031DA00022AD8B4032A03AEA6D70E6A0E88FF0CB9
:0E31EA000E6A0CA002D050EC13F0000F120081
:1031F8000301B86BFF0EB96FBA6BBB6B0101F083AB
:10320800F0C11AF4DCEC03F00101F081F0C11AF40A
:10321800DCEC03F0B6C300F00032009E0032009EE2
:103228000032009E030E0024026E02C0ABF1B7C349
:1032380000F00032009E0032009E0032009E00C066
:10324800AAF102C0BDF300C0BEF3EFEC11F0030118
:10325800BA51000AD8A479D1BB51000AD8A475D1B3
:10326800040084B885D0B3C3E9FFB4C3EAFFB551FD
:10327800EE5CD8B07DD00D0E0B6E2D0E0C6ED70EF9
:103288000D6E0D2EFED70C2EFCD70B2EFAD7000094
:103298000000B3C3E9FFB4C3EAFFEE50F00830E31F
:1032A800B3C3E9FFB4C3EAFFB3C3E1FFB4C3E2FFAA
:1032B8000A0EEE260A0EB65DC86FC96B000EC95B12
:1032C800B7C3CAF3000ECB6FB6C3CCF3000ECD6FF5
:1032D800180ECC27000ECD23090EB725CE6FCF6B65
:1032E800000ECF23D06B7DEC0EF0B8C3C8F3B6C385
:1032F800C9F3B7C3CAF32BEC0EF0B8C3B9F32BD09C
:10330800B3C3E1FFB4C3E2FFB5C3E6FF0A0EB65D7F
:10331800C86FC96B000EC95BB7C3CAF3000ECB6F89
:10332800B6C3CCF3000ECD6F180ECC27000ECD23FC
:10333800090EB725CE6FCF6B000ECF23D06B7DEC77
:103348000EF0B8C3C8F3B6C3C9F3B7C3CAF32BECBE
:103358000EF0B8C3B9F3B3C3E9FFB4C3EAFFB5517C
:10336800EE5C06E3B3C3E1FFB4C3E2FFB5C3E6FF17
:1033780084BA45D0B3C3E9FFB4C3EAFFEE500008EE
:103388003EE284A83CD00D0E0B6E2D0E0C6ED70EAF
:103398000D6E0D2EFED70C2EFCD70B2EFAD7000083
:1033A8000000B3C3E9FFB4C3EAFFB3C3E1FFB4C38A
:1033B800E2FFE6060A0EB65DC86FC96B000EC95B70
:1033C800B7C3CAF3000ECB6FB6C3CCF3000ECD6FF4
:1033D800180ECC27000ECD23090EB725CE6FCF6B64
:1033E800000ECF23D06B7DEC0EF0B8C3C8F3B6C384
:1033F800C9F3B7C3CAF32BEC0EF0B8C3B9F384BE54
:1034080041D0B3C3E9FFB4C3EAFFEE5000083AE283
:1034180084A838D00D0E0B6E2D0E0C6ED70E0D6EC7
:103428000D2EFED70C2EFCD70B2EFAD7000000006D
:10343800B3C3E1FFB4C3E2FFE66A0A0EB65DC86F24
:10344800C96B000EC95BB7C3CAF3000ECB6FB6C316
:10345800CCF3000ECD6F180ECC27000ECD23090E2D
:10346800B725CE6FCF6B000ECF23D06B7DEC0EF05F
:10347800B8C3C8F3B6C3C9F3B7C3CAF32BEC0EF08D
:10348800B8C3B9F384BC28D00101F093F0C11AF491
:10349800DCEC03F02D2A010E0301BA6F010EBB6F9D
:1034A8001D0E0B6E690E0C6EA50E0D6E0D2EFED741
:1034B8000C2EFCD70B2EFAD784BC01D0FDD71D0EDD
:1034C8000B6E690E0C6EA50E0D6E0D2EFED70C2E12
:1034D800FCD70B2EFAD748D00301B3C3E9FFB4C316
:1034E800EAFFEECF01F001C0B8F30150B91907E1C6
:1034F800000EFF0A02E1FF0EB91901E025D00A0EFD
:10350800B65DC86FC96B000EC95BB7C3CAF3000EBE
:10351800CB6FB6C3CCF3000ECD6F180ECC27000EC0
:10352800CD23090EB725CE6FCF6B000ECF23D06BFE
:103538007DEC0EF0B8C3C8F3B6C3C9F3B7C3CAF37A
:103548002BEC0EF0B8C3B9F382D6BD6BBE6BBF6B64
:103558000201C651BA250301C06F0201C751BB2140
:0A3568000301C16F39EC10F01200EE
:10357200B3C3BDF3B4C3BEF3B6C300F0016AFF0E1A
:1035820000140301BF6FA1EC0EF0010E0301B3257D
:10359200BD6F000EB421BE6FFF0EB515BF6FA1EC5B
:0435A2000EF0120015
:1035A600B6C3BFF30301C06BB3C3BDF3B4C3BEF36D
:1035B600000EC06F5DEC0FF0FF0E0301B515BF6F77
:1035C600010EB325BD6F000EB421BE6F000EC06F95
:1035D6005DEC0FF0D00E0C6EC90E0D6E0D2EFED7E3
:0A35E6000C2EFCD7000000001200BC
:1035F0000B6A0C6A086A0350D8B47CEF1BF002C057
:103600000AF0028E9E0E035E03AE6CEF1BF0036C9D
:10361000080E035CD8A039EF1BF0036E083600C01B
:1036200008F001C000F002C001F0026A080E035C5D
:10363000D8A039EF1BF0036E083600C008F001C0B7
:1036400000F0016A080E035CD8A039EF1BF0036E8E
:10365000083600C008F0006A080E035CD8A039EFF5
:103660001BF0036E0836086A0350D8A4D89045EFC3
:103670001BF00350D8B445EF1BF0D8900232013252
:1036800000320832032E3DEF1BF00BBC08A056EFB2
:103690001BF0D8A056EF1BF0082AD8B4002AD8B4E3
:1036A000012AD8B4022A02BE80EF1BF00AAE7CEFDA
:1036B0001BF0021E011E001E081E082AD8B4002A94
:1036C000D8B4012AD8B4022A7CEF1BF0026A016A3E
:1036D000006A086A7CEF1BF00B800BAE87EF1BF0D3
:1036E000026A0AAE87EF1BF0026E016E006E086E72
:1036F0000A36023287EF1BF00C6A000E88EF1BF0CF
:10370000010E0C6E000E8EEC0FF088EF1BF0FF0E1A
:103710000250036E0150026E0050016E0850006EA0
:02372000120095
:103722000450000A12E10550000A0FE10650000A97
:103732000CE10750000A09E1FF0E006EFF0E016E58
:103742007F0E026EFF0E036EA8D0086A096A075048
:10375200D8B43CEF1CF00350D8B441EF1CF0025037
:1037620006180A6E028E068E0E6A02C008F001C0AA
:103772000CF000C00DF004500D5E0550D8A0053CC1
:103782000C5E0650D8A0063C085E086A0C6A0D6AF8
:10379200D8A0D3EF1BF0D8900232013200320832A7
:1037A200010E0E6E0750035ED8A0E0EF1BF07E0EF6
:1037B2000E240326D8B046EF1CF0E6EF1BF07E0E77
:1037C2000E240326D8A04BEF1CF0180E0B6E0D36FC
:1037D2000C3608360036013602360E360450005ECC
:1037E2000550D8A0053C015E0650D8A0063C025EFA
:1037F20006340E120EA001EF1CF00D800CEF1CF02F
:10380200045000260550D8B0053C01260650D8B019
:10381200062802260D900B2EE8EF1BF032EF1CF06B
:10382200D8900036013602360E360450005E05503E
:10383200D8A0053C015E0650D8A0063C025E0634C4
:103842000E10010B0D26D8B00C2AD8B4082AD8A421
:1038520032EF1CF008320C320D32032AD8B446EF94
:103862001CF00AAE089E0850026E0C50016E0D50FC
:10387200006E4EEF1CF0010E51EC14F04EEF1CF0F6
:10388200020E75EC0AF04EEF1CF0040E8EEC0DF0F9
:0C3892004EEF1CF0080E80EC0AF0120053
:10389E000A6A0350D8A40A800750D8A40A820A5094
:1038AE00D8B4B2EF1CF0030AD8B46BEF1CF00AB018
:1038BE0066EF1CF006AEB0EF1CF0AEEF1CF002AEE1
:1038CE00AEEF1CF0B0EF1CF00250800B0A6E029EA1
:1038DE000650800B069E0A18D8B47CEF1CF00A50D6
:1038EE00D8B4AEEF1CF0B0EF1CF00750035CD8B4A8
:1038FE0086EF1CF0D8A0A2EF1CF0A8EF1CF006502B
:10390E00025CD8B490EF1CF0D8A0A2EF1CF0A8EF88
:10391E001CF00550015CD8B49AEF1CF0D8A0A2EFB1
:10392E001CF0A8EF1CF00450005CD8B4B2EF1CF0F1
:10393E00D8B0A8EF1CF00A52D8B4B0EF1CF0AEEF1E
:10394E001CF00A52D8B4AEEF1CF0B0EF1CF0D880C9
:0E395E001200D8901200D880D88412001200F7
:10396C000301B86BFF0EB96FBA6BBB6B0101F0832F
:10397C00F0C11AF4DCEC03F00101F081F0C11AF48F
:10398C00DCEC03F0B6C300F00032009E0032009E67
:10399C000032009E030E0024026E02C0ABF1B7C3CE
:1039AC0000F00032009E0032009E0032009E00C0EB
:1039BC00AAF102C0BDF300C0BEF3EFEC11F003019D
:1039CC00BA51000AD8A457D1BB51000AD8A453D17C
:1039DC00040084B865D0B3C3E9FFB4C3EAFFB551A2
:1039EC00EE5C5EE20D0E0B6E2D0E0C6ED70E0D6E98
:1039FC000D2EFED70C2EFCD70B2EFAD70000000094
:103A0C00B3C3E9FFB4C3EAFFEE50F0082EE3B3C32F
:103A1C00E9FFB4C3EAFFB3C3E1FFB4C3E2FF0A0E8C
:103A2C00EE260A0EB65DC86FC96B000EC95BB7C334
:103A3C00CAF3000ECB6FB6C3CCF3000ECD6F180ECD
:103A4C00CC27000ECD23090EB725CE6FCF6B000E01
:103A5C00CF23D06B7DEC0EF0B8C3C8F3B6C3C9F35B
:103A6C00B7C3CAF32BEC0EF00ED0B3C3E1FFB4C353
:103A7C00E2FFB5C3E6FFB8C3C8F3B6C3C9F3B7C317
:103A8C00CAF32BEC0EF0B3C3E9FFB4C3EAFFB55194
:103A9C00EE5C06E3B3C3E1FFB4C3E2FFB5C3E6FFDC
:103AAC0084BA43D0B3C3E9FFB4C3EAFFEE500008B5
:103ABC003CE284A83AD00D0E0B6E2D0E0C6ED70E78
:103ACC000D6E0D2EFED70C2EFCD70B2EFAD7000048
:103ADC000000B3C3E9FFB4C3EAFFB3C3E1FFB4C34F
:103AEC00E2FFE6060A0EB65DC86FC96B000EC95B35
:103AFC00B7C3CAF3000ECB6FB6C3CCF3000ECD6FB9
:103B0C00180ECC27000ECD23090EB725CE6FCF6B28
:103B1C00000ECF23D06B7DEC0EF0B8C3C8F3B6C348
:103B2C00C9F3B7C3CAF32BEC0EF084BE41D0B3C3B8
:103B3C00E9FFB4C3EAFFEE5000083AE284A838D09B
:103B4C000D0E0B6E2D0E0C6ED70E0D6E0D2EFED7B0
:103B5C000C2EFCD70B2EFAD700000000B3C3E1FFEC
:103B6C00B4C3E2FFE66A0A0EB65DC86FC96B000EFD
:103B7C00C95BB7C3CAF3000ECB6FB6C3CCF3000E50
:103B8C00CD6F180ECC27000ECD23090EB725CE6FA6
:103B9C00CF6B000ECF23D06B7DEC0EF0B8C3C8F307
:103BAC00B6C3C9F3B7C3CAF32BEC0EF0B8C3B9F361
:103BBC0084BC28D00101F093F0C11AF4DCEC03F0C2
:103BCC002D2A010E0301BA6F010EBB6F1D0E0B6E79
:103BDC00690E0C6EA50E0D6E0D2EFED70C2EFCD79D
:103BEC000B2EFAD784BC01D0FDD71D0E0B6E690EBF
:103BFC000C6EA50E0D6E0D2EFED70C2EFCD70B2EBB
:103C0C00FAD748D00301B3C3E9FFB4C3EAFFEECF40
:103C1C0001F001C0B8F30150B91907E1000EFF0A19
:103C2C0002E1FF0EB91901E025D00A0EB65DC86F8E
:103C3C00C96B000EC95BB7C3CAF3000ECB6FB6C31A
:103C4C00CCF3000ECD6F180ECC27000ECD23090E31
:103C5C00B725CE6FCF6B000ECF23D06B7DEC0EF063
:103C6C00B8C3C8F3B6C3C9F3B7C3CAF32BEC0EF091
:103C7C00B8C3B9F3A4D6BD6BBE6BBF6B0201C65102
:103C8C00BA250301C06F0201C751BB210301C16FEB
:063C9C0039EC10F01200EB
:103CA20000C008F00150006E016A026A036A0B6AE2
:103CB2000C6A016A026A036A960E036E0A6A00AE11
:103CC20069EF1EF0081E001E082AD8B4002A0A8EC8
:103CD20000C001F008C000F0086A026A55EC0DF05D
:023CE2001200CE
:103CE4000B6A0350D8B4B8EF1EF002500A6E028E6D
:103CF4008E0E035E03AEBCEF1EF0036C080E035C75
:103D0400D8A097EF1EF0036E013602C001F0026ADC
:103D1400080E035CD8A097EF1EF0036E0136016A0B
:103D24000350D8A4D890A1EF1EF00350D8B4A1EF4B
:103D34001EF0D89002320132032E9BEF1EF00BBC12
:103D440001A0AEEF1EF0D8A0AEEF1EF0012AD8B449
:103D5400022A02BECBEF1EF00AAED1EF1EF0021E05
:103D6400011E012AD8B4022AD1EF1EF0026A016AA8
:103D7400D1EF1EF00B800BAED5EF1EF0026A0AAE37
:103D8400D5EF1EF0FF0E026E016E0A360232D5EF39
:103D94001EF0010E0C6E8EEC0FF0D7EF1EF0000E2D
:103DA4000C6ED7EF1EF0FF0E0C6E0150006E025029
:043DB400016E12008A
:103DB800025006180E6E086A096A0B6A03500764F7
:103DC800CFEF1FF006500A6E068E028E03500B6E60
:103DD8000750036E000E0B641FEF1FF00B50075EB9
:103DE800D8B4C0EF1FF0070E07648EEF1FF0075E10
:103DF80000C008F001C000F002C001F0026A074EDE
:103E0800C0EF1FF0076463EF1FF0075E00C008F003
:103E180001C000F0016A074EC0EF1FF0076441EFD0
:103E28001FF0075E00C008F0006A074EC0EF1FF0E1
:103E3800076428EF1FF00AC002F005C001F004C0B3
:103E480000F0086AECEF20F0030E076433EF1FF070
:103E5800075E08380F0B086E074EC0EF1FF0D890AA
:103E68000832074EC0EF1FF0D8900832074EC0EF57
:103E78001FF0D8900832C0EF1FF0030E076452EF0E
:103E88001FF0075E08380F0B086E0038F00B082685
:103E980000380F0B006E074EC0EF1FF0D8900032AD
:103EA8000832074EC0EF1FF0D89000320832074E94
:103EB800C0EF1FF0D89000320832C0EF1FF0030E99
:103EC80007647AEF1FF0075E08380F0B086E00389A
:103ED800F00B082600380F0B006E0138F00B002697
:103EE80001380F0B016E074EC0EF1FF0D89001325A
:103EF80000320832074EC0EF1FF0D890013200326E
:103F08000832074EC0EF1FF0D89001320032083255
:103F1800C0EF1FF0030E0764ABEF1FF0075E083811
:103F28000F0B086E0038F00B082600380F0B006ED8
:103F38000138F00B002601380F0B016E0238F00B28
:103F4800012602380F0B026E074EC0EF1FF0D89003
:103F58000232013200320832074EC0EF1FF0D8900B
:103F68000232013200320832074EC0EF1FF0D890FB
:103F78000232013200320832096A000E0EAEB4EF86
:103F880020F0081E001E011E021E082A002201221F
:103F98000222B4EF20F00750D8A4D5EF1FF0ECEFC1
:103FA80020F0096A02C00AF0028E068E0750035CF0
:103FB800076ED8B4A7EF20F0070E076475EF20F05E
:103FC800075E0450096E0550046E0650056E066AB9
:103FD800074EA7EF20F0070E07644AEF20F0075EB0
:103FE8000450096E0550046E056A074EA7EF20F0CD
:103FF800070E076428EF20F0075E0450096E046A74
:10400800074EA7EF20F0070E07640FEF20F00AC055
:1040180002F0ECEF20F0030E07641AEF20F0075EC1
:1040280009380F0B096E074EA7EF20F0D890093218
:10403800074EA7EF20F0D8900932074EA7EF20F0DF
:10404800D8900932A7EF20F0030E076439EF20F06B
:10405800075E09380F0B096E0438F00B092604387F
:104068000F0B046E074EA7EF20F0D89004320932E8
:10407800074EA7EF20F0D89004320932074EA7EF79
:1040880020F0D89004320932A7EF20F0030E07641D
:1040980061EF20F0075E09380F0B096E0438F00B4A
:1040A800092604380F0B046E0538F00B0426053872
:1040B8000F0B056E074EA7EF20F0D890053204329B
:1040C8000932074EA7EF20F0D890053204320932A2
:1040D800074EA7EF20F0D890053204320932A7EF37
:1040E80020F0030E076492EF20F0075E09380F0BEB
:1040F800096E0438F00B092604380F0B046E0538D6
:10410800F00B042605380F0B056E0638F00B052654
:1041180006380F0B066E074EA7EF20F0D890063230
:10412800053204320932074EA7EF20F0D890063244
:10413800053204320932074EA7EF20F0D890063234
:10414800053204320932086A000E0EAEB4EF20F0D0
:10415800091E041E051E061E092A0422052206221F
:104168000950082604500022055001220650022258
:104178000EBECBEF20F0D8A0DAEF20F002320132E9
:1041880000320832033EDAEF20F0E6EF20F0D8B034
:10419800E0EF20F0000E081E001E011E021E082A75
:1041A8000022012202220A7EE0EF20F0010E0C6EAE
:1041B8005CEC13F0EEEF20F0020E0C6E5CEC13F0EA
:1041C800EEEF20F0040E0C6E8EEC0DF0EEEF20F00A
:0641D800000E0C6E120047
:1041DE009DC304F09EC305F004C0E9FF05C0EAFFCD
:1041EE00EE5203E0044A052AF7D704C002F005C0D8
:1041FE0003F0044A052A9FC300F0A0C301F0030197
:10420E009F4BA02B00C0E9FF01C0EAFF02C0E1FFF7
:10421E0003C0E2FFEECFE6FF02C0E9FF03C0EAFFF4
:10422E00EE5201E0E2D79DC300F09EC301F01200F2
:10423E009FC300F0A0C301F0A1C302F0A2C303F01C
:10424E00000E046E000E056E200E066E820E076EB8
:10425E0049EC17F040DD00C0A3F301C0A4F39DC3E9
:10426E00BDF39EC3BEF3FF0E00140301BF6FA1EC9E
:10427E000EF0010E03019D25BD6F000E9E21BE6F37
:10428E00A4C300F0000EA4BFFF0E016EFF0E0014BB
:08429E00BF6FA1EC0EF012004D
:1042A60003019D6B9D51000AD8A47DD1BD6BBE6BE9
:1042B600BF6B0201C651BA250301C06F0201C75187
:1042C600BB210301C16F39EC10F0A30E0301D16FBE
:1042D600180ED26F010ED36F380ED46F240ED56F21
:1042E6008FEC09F0290E0B6E960E0C6E7F0E0D6E7E
:1042F6000D2EFED70C2EFCD70B2EFAD7040E03017B
:10430600B36F1DEC16F000C069F1050EB36F1DEC1E
:1043160016F000C064F1060EB36F1DEC16F000C077
:1043260063F169C1C8F3400EC96F400ECA6F2BEC2A
:104336000EF064C1C8F3700EC96F400ECA6F2BEC45
:104346000EF063C1C8F39C0EC96F400ECA6F2BEC0A
:104356000EF07A0E0B6EC10E0C6E810E0D6E0D2ECA
:10436600FED70C2EFCD70B2EFAD700000000690EE4
:10437600B36F010EB46F1F0EB56F400EB66F400ED1
:10438600B76FFCEC18F0520E0B6E2B0E0C6E000E77
:104396000D6E0D2EFED70C2EFCD70B2EFAD7000075
:1043A600640E0301B36F010EB46F0C0EB56F700E81
:1043B600B66F400EB76FFCEC18F0520E0B6E2B0E5C
:1043C6000C6E000E0D6E0D2EFED70C2EFCD70B2E8E
:1043D600FAD70000630E0301B36F010EB46F630ECC
:1043E600B56F9C0EB66F400EB76FFCEC18F0520E10
:1043F6000B6E2B0E0C6E000E0D6E0D2EFED70C2EB8
:10440600FCD70B2EFAD70000040E0301B36F69C167
:10441600B4F329EC17F0050E0301B36F64C1B4F3CE
:1044260029EC17F0060E0301B36F63C1B4F329EC50
:1044360017F00301BD6BBE6BBF6B0201C651BA25F7
:104446000301C06F0201C751BB210301C16F39ECE3
:1044560010F0720E0301D16F150ED26F010ED36FDD
:10446600380ED46F240ED56F8FEC09F07A0E0B6ED2
:10447600C10E0C6E810E0D6E0D2EFED70C2EFCD7C6
:104486000B2EFAD700000000020E0301B36F1DECDD
:1044960016F000C06DF1010EB36F1DEC16F000C0F2
:1044A6006CF1B36B1DEC16F000C07EF16DC1C8F364
:1044B600400EC96F400ECA6F2BEC0EF06CC1C8F3EC
:1044C600700EC96F400ECA6F2BEC0EF07EC1C8F39A
:1044D600A80EC96F400ECA6F2BEC0EF06D0EB36FAF
:1044E600010EB46F180EB56F400EB66F400EB76F63
:1044F600FCEC18F0520E0B6E2B0E0C6E000E0D6EB1
:104506000D2EFED70C2EFCD70B2EFAD700006C0E04
:104516000301B36F010EB46F3B0EB56F700EB66F2D
:10452600400EB76FFCEC18F0520E0B6E2B0E0C6E95
:10453600000E0D6E0D2EFED70C2EFCD70B2EFAD7C5
:1045460000007E0E0301B36F010EB46F3B0EB56F14
:10455600A80EB66F400EB76FFCEC18F0520E0B6E3D
:104566002B0E0C6E000E0D6E0D2EFED70C2EFCD7EC
:104576000B2EFAD70000020E0301B36F6DC1B4F320
:1045860029EC17F0010E0301B36F6CC1B4F329ECEB
:1045960017F00301B36B7EC1B4F329EC17F0010EDB
:1045A60003019D6F7FD6520E0B6E2B0E0C6E000E06
:1045B6000D6E0D2EFED70C2EFCD70B2EFAD7000053
:0245C6001200E1
:1045C8009DC302F09EC303F002C000F003C001F0D7
:1045D800024A032A00C0E9FF01C0EAFFEE5201E0E7
:1045E800F3D703019D51025C006E9E510358016E82
:0A45F800010E005E000E015A1200D1
:10460200020E0301B36F1DEC16F000C06DF1010E36
:10461200B36F1DEC16F000C06CF1040EB36F1DEC0D
:1046220016F000C069F1050EB36F1DEC16F000C064
:1046320064F1060EB36F1DEC16F000C063F1210E9B
:104642000B6E780E0C6E980E0D6E0D2EFED70C2E84
:0A465200FCD70B2EFAD7000012006F
:10465C0080C100F0000E016E003601360090100E85
:10466C0000240301BD6F000E0120BE6FBDEC0EF0E7
:10467C007AEC0FF000C039F301C03AF302C03BF3FF
:10468C0003C03CF3030E0B6E700E0C6E5C0E0D6EC5
:10469C000D2EFED70C2EFCD70B2EFAD7000080C1A6
:1046AC0000F0000E016E003601360090D00E002492
:1046BC00BD6F000E0120BE6FBDEC0EF07AEC0FF05A
:1046CC0000C031F301C032F302C033F303C034F342
:1046DC00030E0B6E700E0C6E5C0E0D6E0D2EFED757
:1046EC000C2EFCD70B2EFAD7000080C100F0000E68
:1046FC00016E003601360090900E0024BD6F010E45
:10470C000120BE6FBDEC0EF07AEC0FF000C035F35B
:10471C0001C036F302C037F303C038F3030E0B6E3F
:10472C00700E0C6E5C0E0D6E0D2EFED70C2EFCD783
:10473C000B2EFAD7000080C100F0000E016E00367F
:10474C0001360090500E0024BD6F020E0120BE6F8A
:10475C00BDEC0EF07AEC0FF000C02DF301C02EF37F
:10476C0002C02FF303C030F3030E0B6E700E0C6EF1
:10477C005C0E0D6E0D2EFED70C2EFCD70B2EFAD721
:10478C00000080C100F0000E016E00360136009072
:10479C00100E0024BD6F030E0120BE6FBDEC0EF099
:1047AC007AEC0FF000C047F301C048F302C049F3A4
:1047BC0003C04AF3030E0B6E700E0C6E5C0E0D6E86
:1047CC000D2EFED70C2EFCD70B2EFAD7000080C175
:1047DC0000F0000E016E003601360090D00E002461
:1047EC00BD6F030E0120BE6FBDEC0EF07AEC0FF026
:1047FC0000C04BF301C04CF302C04DF303C04EF3A9
:10480C00030E0B6E700E0C6E5C0E0D6E0D2EFED725
:10481C000C2EFCD70B2EFAD7000080C100F0000E36
:10482C00016E003601360090900E0024BD6F040E10
:10483C000120BE6FBDEC0EF07AEC0FF000C03FF320
:10484C0001C040F302C041F303C042F3030E0B6EF0
:10485C00700E0C6E5C0E0D6E0D2EFED70C2EFCD752
:10486C000B2EFAD7000080C100F0000E016E00364E
:10487C0001360090500E0024BD6F050E0120BE6F56
:10488C00BDEC0EF07AEC0FF000C043F301C044F322
:10489C0002C045F303C046F3030E0B6E700E0C6E94
:1048AC005C0E0D6E0D2EFED70C2EFCD70B2EFAD7F0
:1048BC00000080C100F0000E016E00360136009041
:1048CC00100E0024BD6F060E0120BE6FBDEC0EF065
:1048DC007AEC0FF000C029F301C02AF302C02BF3CD
:1048EC0003C02CF3030E0B6E700E0C6E5C0E0D6E73
:1048FC000D2EFED70C2EFCD70B2EFAD7000080C144
:10490C0000F0000E016E003601360090D00E00242F
:10491C00BD6F060E0120BE6FBDEC0EF07AEC0FF0F1
:10492C0000C025F301C026F302C027F303C028F30F
:10493C00030E0B6E700E0C6E5C0E0D6E0D2EFED7F4
:10494C000C2EFCD70B2EFAD7000080C100F0000E05
:10495C00016E003601360090900E0024BD6F070EDC
:10496C000120BE6FBDEC0EF07AEC0FF000C021F30D
:10497C0001C022F302C023F303C024F3030E0B6E19
:10498C00700E0C6E5C0E0D6E0D2EFED70C2EFCD721
:10499C000B2EFAD7000080C100F0000E016E00361D
:1049AC0001360090500E0024BD6F080E0120BE6F22
:1049BC00BDEC0EF07AEC0FF000C00DF301C00EF35D
:1049CC0002C00FF303C010F3030E0B6E700E0C6ECF
:1049DC005C0E0D6E0D2EFED70C2EFCD70B2EFAD7BF
:1049EC00000080C100F0000E016E00360136009010
:1049FC00100E0024BD6F090E0120BE6FBDEC0EF031
:104A0C007AEC0FF000C009F301C00AF302C00BF3FB
:104A1C0003C00CF3030E0B6E700E0C6E5C0E0D6E61
:104A2C000D2EFED70C2EFCD70B2EFAD7000080C112
:104A3C0000F0000E016E003601360090D00E0024FE
:104A4C00BD6F090E0120BE6FBDEC0EF07AEC0FF0BD
:104A5C0000C005F301C006F302C007F303C008F35E
:104A6C00030E0B6E700E0C6E5C0E0D6E0D2EFED7C3
:104A7C000C2EFCD70B2EFAD7000080C100F0000ED4
:104A8C00016E003601360090900E0024BD6F0A0EA8
:104A9C000120BE6FBDEC0EF07AEC0FF000C017F3E6
:104AAC0001C018F302C019F303C01AF3030E0B6E06
:104ABC00700E0C6E5C0E0D6E0D2EFED70C2EFCD7F0
:104ACC000B2EFAD7000080C100F0000E016E0036EC
:104ADC0001360090500E0024BD6F0B0E0120BE6FEE
:104AEC00BDEC0EF07AEC0FF000C013F301C014F320
:104AFC0002C015F303C016F3030E0B6E700E0C6E92
:104B0C005C0E0D6E0D2EFED70C2EFCD70B2EFAD78D
:104B1C000000116B126B1B6B1C6B1D6B1E6B1F6BE8
:104B2C00206B0201F26BF36BF46BF56BF66BF76BAE
:104B3C00EC6BED6BEE6BEF6BF06BF16BFE6BFF6B7D
:104B4C000301016B026B036B046B0201F86BF96BD5
:0A4B5C00FA6BFB6BFC6BFD6B1200A3
:104B66000301BD6BBE6BBF6B0201C651BA250301C3
:104B7600C06F0201C751BB210301C16F39EC10F0B0
:104B86004E0E0301D16F180ED26F010ED36F380E81
:104B9600D46F380ED56F8FEC09F0400E0301C86F45
:104BA600000EC96F37EC0DF000C06AF1680E0C6E8E
:104BB600E40E0D6E0D2EFED70C2EFCD700006AC13A
:104BC600C8F3700EC96F480ECA6F2BEC0EF0150EA7
:104BD6000B6E4B0E0C6EBE0E0D6E0D2EFED70C2EF2
:104BE600FCD70B2EFAD700006A0EB36F010EB46F16
:104BF600510EB56F700EB66F480EB76FB6EC1CF05F
:104C0600400E0301BD6F000EBE6F6AC1BFF3A1EC7B
:104C16000EF0680E0C6EE40E0D6E0D2EFED70C2EE9
:064C2600FCD700001200A3
:104C2C009DC3C8F39EC3C9F337EC0DF000C09FF3CE
:104C3C00010E03019D25C86F000E9E21C96F37EC34
:104C4C000DF000C003F0026A9F510210006E03C009
:104C5C0001F0000E011251EC1EF0000E046E000E5D
:104C6C00056E200E066E820E076E91EC1BF0120084
:104C7C000301A96BAA6B046A056A066A076A9DC3DD
:104C8C0000F09EC301F09FC302F0A0C303F04FECF1
:104C9C001CF0010ED8B0000E006E00520BE0A951B2
:104CAC00A125E16EAA51A221E26E2D0EE66EA94B52
:104CBC00AA2B9F7F9DC300F09EC301F09FC302F0FF
:104CCC00A0C303F0000E046E000E056E200E066EDF
:104CDC00820E076E49EC17F0F8EC1AF000C0AFF337
:104CEC0001C0B0F302C0B1F303C0B2F30A0E046EFC
:104CFC00000E056E066E076EAFC300F0B0C301F078
:104D0C00B1C302F0B2C303F04DEC18F000C0ABF32A
:104D1C0001C0ACF302C0ADF303C0AEF3ABC3A3F35D
:104D2C00ACC3A4F3ADC3A5F3AEC3A6F30A0E046ED5
:104D3C00000E056E066E076EAFC300F0B0C301F037
:104D4C00B1C302F0B2C303F04DEC18F008C000F090
:104D5C0009C001F00AC002F00BC003F000C0A7F3B9
:104D6C0001C0A8F3800E0301AE19006E800E005C2A
:104D7C0008E1000EAD5D05E1030EAC5D02E1E80E4D
:104D8C00AB5DD8A0AED0A951A125AB6FAA51A22181
:104D9C00AC6FE80E046E030E056E000E066E076E09
:104DAC00A3C300F0A4C301F0A5C302F0A6C303F093
:104DBC004DEC18F0300E0026ABC3E1FFACC3E2FFA4
:104DCC0000C0E6FF0301A94BAA2BA951A125AB6F8B
:104DDC00AA51A221AC6F640E046E000E056E066E15
:104DEC00076EA3C300F0A4C301F0A5C302F0A6C3D1
:104DFC0003F04DEC18F00A0E046E000E056E066EF4
:104E0C00076E4DEC18F008C000F009C001F00AC0A4
:104E1C0002F00BC003F0300E0026ABC3E1FFACC3B5
:104E2C00E2FF00C0E6FF0301A94BAA2BA951A12563
:104E3C00AB6FAA51A221AC6F0A0E046E000E056E68
:104E4C00066E076EA3C300F0A4C301F0A5C302F065
:104E5C00A6C303F04DEC18F00A0E046E000E056E9E
:104E6C00066E076E4DEC18F008C000F009C001F09A
:104E7C000AC002F00BC003F0300E0026ABC3E1FFFA
:104E8C00ACC3E2FF00C0E6FF0301A94BAA2BA9515A
:104E9C00A125AB6FAA51A221AC6F0A0E046E000EB5
:104EAC00056E066E076EA3C300F0A4C301F0A5C384
:104EBC0002F0A6C303F04DEC18F008C000F009C0D6
:104ECC0001F00AC002F00BC003F0300E0026ABC399
:104EDC00E1FFACC3E2FF00C0E6FF0301A94BAA2B24
:104EEC00F2D0800EA619006E800E005C08E1000E58
:104EFC00A55D05E1000EA45D02E1640EA35D7CE3FB
:104F0C00A951A125AB6FAA51A221AC6F640E046EFE
:104F1C00000E056E066E076EA3C300F0A4C301F06D
:104F2C00A5C302F0A6C303F04DEC18F0300E00261A
:104F3C00ABC3E1FFACC3E2FF00C0E6FF0301A94B2A
:104F4C00AA2BA951A125AB6FAA51A221AC6F0A0EB5
:104F5C00046E000E056E066E076EA3C300F0A4C3AC
:104F6C0001F0A5C302F0A6C303F04DEC18F00A0E35
:104F7C00046E000E056E066E076E4DEC18F008C040
:104F8C0000F009C001F00AC002F00BC003F0300EB3
:104F9C000026ABC3E1FFACC3E2FF00C0E6FF030198
:104FAC00A94BAA2BA951A125AB6FAA51A221AC6F79
:104FBC000A0E046E000E056E066E076EA3C300F09B
:104FCC00A4C301F0A5C302F0A6C303F04DEC18F086
:104FDC0008C000F009C001F00AC002F00BC003F0D9
:104FEC00300E0026ABC3E1FFACC3E2FF00C0E6FF0E
:104FFC000301A94BAA2B67D0800EA619006E800E58
:10500C00005C08E1000EA55D05E1000EA45D02E167
:10501C000A0EA35D4BE3A951A125AB6FAA51A221A6
:10502C00AC6F0A0E046E000E056E066E076EA3C3FF
:10503C0000F0A4C301F0A5C302F0A6C303F04DEC2D
:10504C0018F0300E0026ABC3E1FFACC3E2FF00C08A
:10505C00E6FF0301A94BAA2BA951A125AB6FAA51BD
:10506C00A221AC6F0A0E046E000E056E066E076E62
:10507C00A3C300F0A4C301F0A5C302F0A6C303F0C0
:10508C004DEC18F008C000F009C001F00AC002F0A5
:10509C000BC003F0300E0026ABC3E1FFACC3E2FF44
:1050AC0000C0E6FF0301A94BAA2B0DD0A951A125E5
:1050BC00E16EAA51A221E26E300EA325006E00C053
:1050CC00E6FFA94BAA2BA951A125E16EAA51A22159
:1050DC00E26E2E0EE66EA94BAA2BA951A125E16E0C
:1050EC00AA51A221E26E300EA725006E00C0E6FF89
:1050FC00A94BAA2BA951A125E16EAA51A221E26EBE
:04510C00E66A12003D
:1051100003500718D8A49CEF28F002500618D8A412
:105120009CEF28F001500518D8A49CEF28F00050FF
:0E5130000418D8B4D8841200D89412001200CB
:08513E00067EDCEC1EF01200FD
:10514600220E0C6E086A096A0A6A0B6A0C06D8B443
:105156001FD0D8900B320A3209320832033202329B
:1051660001320032D8A0F2D70C06D8B409D00450C8
:1051760008260550092206500A2207500B22EAD7B4
:10518600045008260550092206500A2207500B2211
:02519600120005
:105198009DC304F09EC305F004C002F005C003F0EF
:1051A800044A052A9FC300F0A0C301F003019F4BE6
:1051B800A02B00C0E9FF01C0EAFF02C0E1FF03C065
:1051C800E2FFEECFE6FF02C0E9FF03C0EAFFEE52BE
:0E51D80001E0E2D79DC300F09EC301F012007B
:1051E60003019D6B9E6B9F6BA06BA16BA26B016A0B
:1051F60001018DB9012A01500108D8A0BFD10301D0
:10520600BD6BBE6BBF6B0201C651BA250301C06FF1
:105216000201C751BB210301C16F39EC10F0860EA4
:105226000301D16F1C0ED26F010ED36F4E0ED46FD9
:10523600200ED56F8FEC09F06E0E0301D16F1C0E98
:10524600D26F010ED36F4E0ED46F300ED56F8FEC2A
:1052560009F0F29CF29E500E0301BD6F000EBE6F68
:10526600680EBF6F000EC06FA00EC16F000EC26F3A
:105276005A0EC36F000EC46F080EC56FE8EC0FF030
:1052860003019D6B9E6B000E9E5D02E1100E9D5DFF
:1052960044E29DC3BDF3F0EC0EF09DC300F09EC347
:1052A60001F0600E046E000E056EF0EC03F000C017
:1052B6009FF301C0A0F300C0A1F301C0A2F3600EEA
:1052C6009F25016E000EA021026E0250A25D02E132
:1052D6000150A15D1FE2A1C300F0A2C301F0003698
:1052E60000900136100E0024B36F000E0120B46F3B
:1052F600B56BB66BD3EC1AF0D00E0C6EC90E0D6EF4
:105306000D2EFED70C2EFCD7000000000301A14B8A
:10531600A22BD5D79D4B9E2BB6D79D6B9E6B000EB1
:105326009E5D02E1100E9D5D24E2190E9D25BD6F66
:10533600F0EC0EF09DC300F09EC301F00036009025
:105346000136200E0024B36F000E0120B46FB56B3A
:10535600B66BB9EC1AF0D00E0C6EC90E0D6E0D2E92
:10536600FED70C2EFCD70000000003019D4B9E2BA0
:10537600D6D753EC16F08DA741D08DA93FD08D9787
:105386000301BD6BBE6BBF6B0201C651BA2503019B
:10539600C06F0201C751BB210301C16F39EC10F088
:1053A600070E0301D16F180ED26F010ED36F340EA4
:1053B600D46F3C0ED56F8FEC09F00301BD6BBE6B4D
:1053C600BF6B0201C651BA250301C06F0201C75166
:1053D600BB210301C16F39EC10F00301BD6BBE6B3D
:1053E600BF6B0201C651BA250301C06F0201C75146
:1053F600BB210301C16F39EC10F0BFD001018DA7AD
:1054060091D08DB98FD08D970301BD6BBE6BBF6BED
:105416000201C651BA250301C06F0201C751BB2163
:105426000301C16F39EC10F0BE0E0301D16F120EED
:10543600D26F010ED36F040ED46F3C0ED56F8FEC76
:1054460009F0A30E0B6E570E0C6E020E0D6E0D2E8E
:10545600FED70C2EFCD70B2EFAD700000301BD6B2E
:10546600BE6BBF6B0201C651BA250301C06F0201B4
:10547600C751BB210301C16F39EC10F084AE51D086
:10548600280E0301D16F170ED26F010ED36F300EA7
:10549600D46F2E0ED56F8FEC09F08B0E0301D16FF2
:1054A600130ED26F010ED36F240ED46F3E0ED56F3E
:1054B6008FEC09F0FE0E0301D16F1A0ED26F010EAA
:1054C600D36F440ED46F4E0ED56F8FEC09F0E20EFB
:1054D6000301D16F1A0ED26F010ED36F440ED46F33
:1054E6005E0ED56F8FEC09F03B0E0301D16F170EE0
:1054F600D26F010ED36F300ED46F6E0ED56F8FEC58
:1055060009F00E0E0301D16F1A0ED26F010ED36F82
:105516003C0ED46F7E0ED56F8FEC09F001018D998C
:10552600ADD72CD00301BD6BBE6BBF6B0201C6515C
:10553600BA250301C06F0201C751BB210301C16F28
:1055460039EC10F09C0E0301D16F150ED26F010ECF
:10555600D36F280ED46F3C0ED56F8FEC09F0A30ED7
:105566000B6E570E0C6E020E0D6E0D2EFED70C2E08
:10557600FCD70B2EFAD7000001D039D6F28CF28E6A
:105586000301116B126B1B6B1C6B1D6B1E6B1F6B70
:10559600206B0201F26BF36BF46BF56BF66BF76B3A
:1055A600EC6BED6BEE6BEF6BF06BF16BFE6BFF6B09
:1055B6000301016B026B036B046B0201F86BF96B61
:1055C600FA6BFB6BFC6BFD6B55EC14F00301BD6BCA
:1055D600BE6BBF6B0201C651BA250301C06F020143
:1055E600C751BB210301C16F39EC10F06C0E0301EA
:1055F600D16F1A0ED26F010ED36F400ED46F300EDC
:10560600D56F8FEC09F07B0E0301D16F1A0ED26FA6
:10561600010ED36F400ED46F400ED56F8FEC09F09C
:10562600CB0E0B6EEC0E0C6E840E0D6E0D2EFED791
:0C5636000C2EFCD70B2EFAD7000012003F
:105642000B6A0C6A0A6A0350D8B46BEF2BF0028E15
:105652008E0E035E03BE33EF2BF0D8B433EF2BF084
:105662006FEF2BF0036C080E035CD8A04AEF2BF00F
:10567200036E013602C001F0026A080E035CD8A074
:105682004AEF2BF00136016A0350D8A4D89054EFA8
:105692002BF00350D8B454EF2BF0D89002320132E1
:1056A200032E4EEF2BF00BBC01A061EF2BF0D8A024
:1056B20061EF2BF0012AD8B4022A02BE7EEF2BF052
:1056C2000AAE84EF2BF0021E011E012AD8B4022A70
:1056D20084EF2BF0026A016A84EF2BF00B800BAE91
:1056E20088EF2BF0026A0AAE88EF2BF0FF0E026EF3
:1056F200016E0A36023288EF2BF0010E0C6E8EEC30
:105702000FF08AEF2BF0000E0C6E8AEF2BF0FF0EDB
:0C5712000C6E0150006E0250016E12007F
:10571E000301A56BA66B9DC3A7F39EC3A8F39FC3FE
:10572E00A9F3A0C3AAF3800EA019006E800E005C30
:10573E0008E1000E9F5D05E1000E9E5D02E1000E88
:10574E009D5D10E2010EA56F000EA66FA76BA86BF4
:10575E00A96BAA6B9D51A75F9E51A85B9F51A95B38
:10576E00A051AA5BA7C3B3F3A8C3B4F3A9C3B5F3FF
:10577E00AAC3B6F3A1C3B7F3A2C3B8F3DCEC17F018
:10578E000B0EA36F000EA46F000E006EA451005CF2
:10579E0002E1A351000819E2A351A125E16EA45123
:1057AE00A221E26E010EA35D006E000EA459016EE1
:1057BE000050A125E96E0150A221EA6EEECFE6FF60
:1057CE00010EA35F000EA45BDFD7A1C3E1FFA2C34E
:1057DE00E2FF200EE66EA551A6111AE0A36BA46B94
:1057EE00A351A125E96EA451A221EA6EEE50200A22
:1057FE0003E1A34BA42BF4D7010EA35F000EA45B11
:10580E00A351A125E16EA451A221E26E2D0EE66EEA
:02581E00120076
:1058200001EC23F0050E01018003F3CF00F0F4CF6B
:1058300001F0000E00240301BD6F0D0E0120BE6FAC
:105840006DC1BFF3000EC06F5DEC0FF0050E0101DE
:105850008003F3CF00F0F4CF01F0000E0024030129
:10586000BD6F0D0E0120BE6FBD4BBE2B6CC1BFF3D3
:10587000000EC06F5DEC0FF0050E01018003F3CF49
:1058800000F0F4CF01F0000E00240301BD6F0D0EF7
:105890000120BE6F020EBD27000EBE2369C1BFF3FB
:1058A000000EC06F5DEC0FF0050E01018003F3CF19
:1058B00000F0F4CF01F0000E00240301BD6F0D0EC7
:1058C0000120BE6F030EBD27000EBE2364C1BFF3CF
:1058D000000EC06F5DEC0FF0050E01018003F3CFE9
:1058E00000F0F4CF01F0000E00240301BD6F0D0E97
:1058F0000120BE6F040EBD27000EBE2363C1BFF39F
:10590000000EC06F5DEC0FF0210E0B6E780E0C6E6A
:10591000980E0D6E0D2EFED70C2EFCD70B2EFAD73F
:045920000000120071
:1059240080C100F0000E016E003601360090100EAA
:1059340000240301B36F000E0120B46F39C300F0DB
:105944003AC301F03BC302F03CC303F078DE00C06D
:10595400B5F301C0B6F3D3EC1AF0680E0C6EE40E86
:105964000D6E0D2EFED70C2EFCD7000080C100F06A
:10597400000E016E003601360090D00E00240301A3
:10598400B36F000E0120B46F31C300F032C301F0D5
:1059940033C302F034C303F052DE00C0B5F301C0D8
:1059A400B6F3D3EC1AF0680E0C6EE40E0D6E0D2EE9
:1059B400FED70C2EFCD7000080C100F0000E016E53
:1059C400003601360090900E00240301B36F010EDF
:1059D4000120B46F35C300F036C301F037C302F0C1
:1059E40038C303F02CDE00C0B5F301C0B6F3D3EC2A
:1059F4001AF0680E0C6EE40E0D6E0D2EFED70C2EF2
:105A0400FCD7000080C100F0000E016E00360136A4
:105A14000090500E00240301B36F020E0120B46FF6
